{
  "_format": "hh-sol-artifact-1",
  "contractName": "NFTNormal",
  "sourceName": "contracts/NftContract.sol",
  "abi": [
    {
      "inputs": [
        {
          "internalType": "string",
          "name": "_name",
          "type": "string"
        },
        {
          "internalType": "string",
          "name": "_symbol",
          "type": "string"
        },
        {
          "internalType": "string",
          "name": "_initBaseURI",
          "type": "string"
        },
        {
          "internalType": "uint256",
          "name": "_cost",
          "type": "uint256"
        },
        {
          "internalType": "uint256",
          "name": "_maxSupply",
          "type": "uint256"
        },
        {
          "internalType": "uint256",
          "name": "_maxMintAmountPerTx",
          "type": "uint256"
        },
        {
          "internalType": "string",
          "name": "_hiddenMetadataUri",
          "type": "string"
        }
      ],
      "stateMutability": "nonpayable",
      "type": "constructor"
    },
    {
      "anonymous": false,
      "inputs": [
        {
          "indexed": true,
          "internalType": "address",
          "name": "owner",
          "type": "address"
        },
        {
          "indexed": true,
          "internalType": "address",
          "name": "approved",
          "type": "address"
        },
        {
          "indexed": true,
          "internalType": "uint256",
          "name": "tokenId",
          "type": "uint256"
        }
      ],
      "name": "Approval",
      "type": "event"
    },
    {
      "anonymous": false,
      "inputs": [
        {
          "indexed": true,
          "internalType": "address",
          "name": "owner",
          "type": "address"
        },
        {
          "indexed": true,
          "internalType": "address",
          "name": "operator",
          "type": "address"
        },
        {
          "indexed": false,
          "internalType": "bool",
          "name": "approved",
          "type": "bool"
        }
      ],
      "name": "ApprovalForAll",
      "type": "event"
    },
    {
      "anonymous": false,
      "inputs": [
        {
          "indexed": true,
          "internalType": "address",
          "name": "previousOwner",
          "type": "address"
        },
        {
          "indexed": true,
          "internalType": "address",
          "name": "newOwner",
          "type": "address"
        }
      ],
      "name": "OwnershipTransferred",
      "type": "event"
    },
    {
      "anonymous": false,
      "inputs": [
        {
          "indexed": true,
          "internalType": "address",
          "name": "from",
          "type": "address"
        },
        {
          "indexed": true,
          "internalType": "address",
          "name": "to",
          "type": "address"
        },
        {
          "indexed": true,
          "internalType": "uint256",
          "name": "tokenId",
          "type": "uint256"
        }
      ],
      "name": "Transfer",
      "type": "event"
    },
    {
      "inputs": [
        {
          "internalType": "address",
          "name": "",
          "type": "address"
        }
      ],
      "name": "addressMintedBalance",
      "outputs": [
        {
          "internalType": "uint256",
          "name": "",
          "type": "uint256"
        }
      ],
      "stateMutability": "view",
      "type": "function"
    },
    {
      "inputs": [
        {
          "internalType": "address",
          "name": "to",
          "type": "address"
        },
        {
          "internalType": "uint256",
          "name": "tokenId",
          "type": "uint256"
        }
      ],
      "name": "approve",
      "outputs": [],
      "stateMutability": "nonpayable",
      "type": "function"
    },
    {
      "inputs": [
        {
          "internalType": "address",
          "name": "owner",
          "type": "address"
        }
      ],
      "name": "balanceOf",
      "outputs": [
        {
          "internalType": "uint256",
          "name": "",
          "type": "uint256"
        }
      ],
      "stateMutability": "view",
      "type": "function"
    },
    {
      "inputs": [],
      "name": "baseExtension",
      "outputs": [
        {
          "internalType": "string",
          "name": "",
          "type": "string"
        }
      ],
      "stateMutability": "view",
      "type": "function"
    },
    {
      "inputs": [],
      "name": "baseURI",
      "outputs": [
        {
          "internalType": "string",
          "name": "",
          "type": "string"
        }
      ],
      "stateMutability": "view",
      "type": "function"
    },
    {
      "inputs": [],
      "name": "cost",
      "outputs": [
        {
          "internalType": "uint256",
          "name": "",
          "type": "uint256"
        }
      ],
      "stateMutability": "view",
      "type": "function"
    },
    {
      "inputs": [
        {
          "internalType": "uint256",
          "name": "tokenId",
          "type": "uint256"
        }
      ],
      "name": "getApproved",
      "outputs": [
        {
          "internalType": "address",
          "name": "",
          "type": "address"
        }
      ],
      "stateMutability": "view",
      "type": "function"
    },
    {
      "inputs": [],
      "name": "hiddenMetadataUri",
      "outputs": [
        {
          "internalType": "string",
          "name": "",
          "type": "string"
        }
      ],
      "stateMutability": "view",
      "type": "function"
    },
    {
      "inputs": [
        {
          "internalType": "address",
          "name": "owner",
          "type": "address"
        },
        {
          "internalType": "address",
          "name": "operator",
          "type": "address"
        }
      ],
      "name": "isApprovedForAll",
      "outputs": [
        {
          "internalType": "bool",
          "name": "",
          "type": "bool"
        }
      ],
      "stateMutability": "view",
      "type": "function"
    },
    {
      "inputs": [
        {
          "internalType": "address",
          "name": "_user",
          "type": "address"
        }
      ],
      "name": "isWhitelisted",
      "outputs": [
        {
          "internalType": "bool",
          "name": "",
          "type": "bool"
        }
      ],
      "stateMutability": "view",
      "type": "function"
    },
    {
      "inputs": [],
      "name": "maxMintAmountPerTx",
      "outputs": [
        {
          "internalType": "uint256",
          "name": "",
          "type": "uint256"
        }
      ],
      "stateMutability": "view",
      "type": "function"
    },
    {
      "inputs": [],
      "name": "maxSupply",
      "outputs": [
        {
          "internalType": "uint256",
          "name": "",
          "type": "uint256"
        }
      ],
      "stateMutability": "view",
      "type": "function"
    },
    {
      "inputs": [
        {
          "internalType": "uint256",
          "name": "_mintAmount",
          "type": "uint256"
        }
      ],
      "name": "mint",
      "outputs": [],
      "stateMutability": "payable",
      "type": "function"
    },
    {
      "inputs": [],
      "name": "name",
      "outputs": [
        {
          "internalType": "string",
          "name": "",
          "type": "string"
        }
      ],
      "stateMutability": "view",
      "type": "function"
    },
    {
      "inputs": [],
      "name": "nftPerAddressLimit",
      "outputs": [
        {
          "internalType": "uint256",
          "name": "",
          "type": "uint256"
        }
      ],
      "stateMutability": "view",
      "type": "function"
    },
    {
      "inputs": [],
      "name": "owner",
      "outputs": [
        {
          "internalType": "address",
          "name": "",
          "type": "address"
        }
      ],
      "stateMutability": "view",
      "type": "function"
    },
    {
      "inputs": [
        {
          "internalType": "uint256",
          "name": "tokenId",
          "type": "uint256"
        }
      ],
      "name": "ownerOf",
      "outputs": [
        {
          "internalType": "address",
          "name": "",
          "type": "address"
        }
      ],
      "stateMutability": "view",
      "type": "function"
    },
    {
      "inputs": [
        {
          "internalType": "bool",
          "name": "_state",
          "type": "bool"
        }
      ],
      "name": "pause",
      "outputs": [],
      "stateMutability": "nonpayable",
      "type": "function"
    },
    {
      "inputs": [],
      "name": "paused",
      "outputs": [
        {
          "internalType": "bool",
          "name": "",
          "type": "bool"
        }
      ],
      "stateMutability": "view",
      "type": "function"
    },
    {
      "inputs": [],
      "name": "renounceOwnership",
      "outputs": [],
      "stateMutability": "nonpayable",
      "type": "function"
    },
    {
      "inputs": [],
      "name": "reveal",
      "outputs": [],
      "stateMutability": "nonpayable",
      "type": "function"
    },
    {
      "inputs": [],
      "name": "revealed",
      "outputs": [
        {
          "internalType": "bool",
          "name": "",
          "type": "bool"
        }
      ],
      "stateMutability": "view",
      "type": "function"
    },
    {
      "inputs": [
        {
          "internalType": "address",
          "name": "from",
          "type": "address"
        },
        {
          "internalType": "address",
          "name": "to",
          "type": "address"
        },
        {
          "internalType": "uint256",
          "name": "tokenId",
          "type": "uint256"
        }
      ],
      "name": "safeTransferFrom",
      "outputs": [],
      "stateMutability": "nonpayable",
      "type": "function"
    },
    {
      "inputs": [
        {
          "internalType": "address",
          "name": "from",
          "type": "address"
        },
        {
          "internalType": "address",
          "name": "to",
          "type": "address"
        },
        {
          "internalType": "uint256",
          "name": "tokenId",
          "type": "uint256"
        },
        {
          "internalType": "bytes",
          "name": "_data",
          "type": "bytes"
        }
      ],
      "name": "safeTransferFrom",
      "outputs": [],
      "stateMutability": "nonpayable",
      "type": "function"
    },
    {
      "inputs": [
        {
          "internalType": "address",
          "name": "operator",
          "type": "address"
        },
        {
          "internalType": "bool",
          "name": "approved",
          "type": "bool"
        }
      ],
      "name": "setApprovalForAll",
      "outputs": [],
      "stateMutability": "nonpayable",
      "type": "function"
    },
    {
      "inputs": [
        {
          "internalType": "string",
          "name": "_newBaseExtension",
          "type": "string"
        }
      ],
      "name": "setBaseExtension",
      "outputs": [],
      "stateMutability": "nonpayable",
      "type": "function"
    },
    {
      "inputs": [
        {
          "internalType": "string",
          "name": "_newBaseURI",
          "type": "string"
        }
      ],
      "name": "setBaseURI",
      "outputs": [],
      "stateMutability": "nonpayable",
      "type": "function"
    },
    {
      "inputs": [
        {
          "internalType": "uint256",
          "name": "_newCost",
          "type": "uint256"
        }
      ],
      "name": "setCost",
      "outputs": [],
      "stateMutability": "nonpayable",
      "type": "function"
    },
    {
      "inputs": [
        {
          "internalType": "string",
          "name": "_hiddenMetadataUri",
          "type": "string"
        }
      ],
      "name": "setHiddenMetadataUri",
      "outputs": [],
      "stateMutability": "nonpayable",
      "type": "function"
    },
    {
      "inputs": [
        {
          "internalType": "uint256",
          "name": "_newmaxMintAmount",
          "type": "uint256"
        }
      ],
      "name": "setMaxMintAmountPerTx",
      "outputs": [],
      "stateMutability": "nonpayable",
      "type": "function"
    },
    {
      "inputs": [
        {
          "internalType": "uint256",
          "name": "_limit",
          "type": "uint256"
        }
      ],
      "name": "setNftPerAddressLimit",
      "outputs": [],
      "stateMutability": "nonpayable",
      "type": "function"
    },
    {
      "inputs": [
        {
          "internalType": "bool",
          "name": "_state",
          "type": "bool"
        }
      ],
      "name": "setWhitelistMintEnabled",
      "outputs": [],
      "stateMutability": "nonpayable",
      "type": "function"
    },
    {
      "inputs": [
        {
          "internalType": "bytes4",
          "name": "interfaceId",
          "type": "bytes4"
        }
      ],
      "name": "supportsInterface",
      "outputs": [
        {
          "internalType": "bool",
          "name": "",
          "type": "bool"
        }
      ],
      "stateMutability": "view",
      "type": "function"
    },
    {
      "inputs": [],
      "name": "symbol",
      "outputs": [
        {
          "internalType": "string",
          "name": "",
          "type": "string"
        }
      ],
      "stateMutability": "view",
      "type": "function"
    },
    {
      "inputs": [
        {
          "internalType": "uint256",
          "name": "index",
          "type": "uint256"
        }
      ],
      "name": "tokenByIndex",
      "outputs": [
        {
          "internalType": "uint256",
          "name": "",
          "type": "uint256"
        }
      ],
      "stateMutability": "view",
      "type": "function"
    },
    {
      "inputs": [
        {
          "internalType": "address",
          "name": "owner",
          "type": "address"
        },
        {
          "internalType": "uint256",
          "name": "index",
          "type": "uint256"
        }
      ],
      "name": "tokenOfOwnerByIndex",
      "outputs": [
        {
          "internalType": "uint256",
          "name": "",
          "type": "uint256"
        }
      ],
      "stateMutability": "view",
      "type": "function"
    },
    {
      "inputs": [
        {
          "internalType": "uint256",
          "name": "tokenId",
          "type": "uint256"
        }
      ],
      "name": "tokenURI",
      "outputs": [
        {
          "internalType": "string",
          "name": "",
          "type": "string"
        }
      ],
      "stateMutability": "view",
      "type": "function"
    },
    {
      "inputs": [],
      "name": "totalSupply",
      "outputs": [
        {
          "internalType": "uint256",
          "name": "",
          "type": "uint256"
        }
      ],
      "stateMutability": "view",
      "type": "function"
    },
    {
      "inputs": [
        {
          "internalType": "address",
          "name": "from",
          "type": "address"
        },
        {
          "internalType": "address",
          "name": "to",
          "type": "address"
        },
        {
          "internalType": "uint256",
          "name": "tokenId",
          "type": "uint256"
        }
      ],
      "name": "transferFrom",
      "outputs": [],
      "stateMutability": "nonpayable",
      "type": "function"
    },
    {
      "inputs": [
        {
          "internalType": "address",
          "name": "newOwner",
          "type": "address"
        }
      ],
      "name": "transferOwnership",
      "outputs": [],
      "stateMutability": "nonpayable",
      "type": "function"
    },
    {
      "inputs": [
        {
          "internalType": "address",
          "name": "_owner",
          "type": "address"
        }
      ],
      "name": "walletOfOwner",
      "outputs": [
        {
          "internalType": "uint256[]",
          "name": "",
          "type": "uint256[]"
        }
      ],
      "stateMutability": "view",
      "type": "function"
    },
    {
      "inputs": [],
      "name": "whitelistMintEnabled",
      "outputs": [
        {
          "internalType": "bool",
          "name": "",
          "type": "bool"
        }
      ],
      "stateMutability": "view",
      "type": "function"
    },
    {
      "inputs": [
        {
          "internalType": "address[]",
          "name": "_users",
          "type": "address[]"
        }
      ],
      "name": "whitelistUsers",
      "outputs": [],
      "stateMutability": "nonpayable",
      "type": "function"
    },
    {
      "inputs": [
        {
          "internalType": "uint256",
          "name": "",
          "type": "uint256"
        }
      ],
      "name": "whitelistedAddresses",
      "outputs": [
        {
          "internalType": "address",
          "name": "",
          "type": "address"
        }
      ],
      "stateMutability": "view",
      "type": "function"
    },
    {
      "inputs": [],
      "name": "withdraw",
      "outputs": [],
      "stateMutability": "payable",
      "type": "function"
    }
  ],
  "bytecode": "0x60806040526040518060400160405280600581526020017f2e6a736f6e000000000000000000000000000000000000000000000000000000815250600c90805190602001906200005192919062000509565b5060056011556001601260006101000a81548160ff0219169083151502179055506000601260016101000a81548160ff0219169083151502179055506000601260026101000a81548160ff021916908315150217905550348015620000b557600080fd5b5060405162005a3b38038062005a3b8339818101604052810190620000db91906200064e565b86868160009080519060200190620000f592919062000509565b5080600190805190602001906200010e92919062000509565b50505062000131620001256200018960201b60201c565b6200019160201b60201c565b62000142856200025760201b60201c565b62000153816200030260201b60201c565b6200016484620003ad60201b60201c565b62000175826200044660201b60201c565b82600f8190555050505050505050620009a8565b600033905090565b6000600a60009054906101000a900473ffffffffffffffffffffffffffffffffffffffff16905081600a60006101000a81548173ffffffffffffffffffffffffffffffffffffffff021916908373ffffffffffffffffffffffffffffffffffffffff1602179055508173ffffffffffffffffffffffffffffffffffffffff168173ffffffffffffffffffffffffffffffffffffffff167f8be0079c531659141344cd1fd0a4f28419497f9722a3daafe3b4186f6b6457e060405160405180910390a35050565b620002676200018960201b60201c565b73ffffffffffffffffffffffffffffffffffffffff166200028d620004df60201b60201c565b73ffffffffffffffffffffffffffffffffffffffff1614620002e6576040517f08c379a0000000000000000000000000000000000000000000000000000000008152600401620002dd90620007a4565b60405180910390fd5b80600b9080519060200190620002fe92919062000509565b5050565b620003126200018960201b60201c565b73ffffffffffffffffffffffffffffffffffffffff1662000338620004df60201b60201c565b73ffffffffffffffffffffffffffffffffffffffff161462000391576040517f08c379a00000000000000000000000000000000000000000000000000000000081526004016200038890620007a4565b60405180910390fd5b80600d9080519060200190620003a992919062000509565b5050565b620003bd6200018960201b60201c565b73ffffffffffffffffffffffffffffffffffffffff16620003e3620004df60201b60201c565b73ffffffffffffffffffffffffffffffffffffffff16146200043c576040517f08c379a00000000000000000000000000000000000000000000000000000000081526004016200043390620007a4565b60405180910390fd5b80600e8190555050565b620004566200018960201b60201c565b73ffffffffffffffffffffffffffffffffffffffff166200047c620004df60201b60201c565b73ffffffffffffffffffffffffffffffffffffffff1614620004d5576040517f08c379a0000000000000000000000000000000000000000000000000000000008152600401620004cc90620007a4565b60405180910390fd5b8060108190555050565b6000600a60009054906101000a900473ffffffffffffffffffffffffffffffffffffffff16905090565b828054620005179062000876565b90600052602060002090601f0160209004810192826200053b576000855562000587565b82601f106200055657805160ff191683800117855562000587565b8280016001018555821562000587579182015b828111156200058657825182559160200191906001019062000569565b5b5090506200059691906200059a565b5090565b5b80821115620005b55760008160009055506001016200059b565b5090565b6000620005d0620005ca84620007ef565b620007c6565b905082815260208101848484011115620005ef57620005ee62000945565b5b620005fc84828562000840565b509392505050565b600082601f8301126200061c576200061b62000940565b5b81516200062e848260208601620005b9565b91505092915050565b60008151905062000648816200098e565b92915050565b600080600080600080600060e0888a03121562000670576200066f6200094f565b5b600088015167ffffffffffffffff8111156200069157620006906200094a565b5b6200069f8a828b0162000604565b975050602088015167ffffffffffffffff811115620006c357620006c26200094a565b5b620006d18a828b0162000604565b965050604088015167ffffffffffffffff811115620006f557620006f46200094a565b5b620007038a828b0162000604565b9550506060620007168a828b0162000637565b9450506080620007298a828b0162000637565b93505060a06200073c8a828b0162000637565b92505060c088015167ffffffffffffffff81111562000760576200075f6200094a565b5b6200076e8a828b0162000604565b91505092959891949750929550565b60006200078c60208362000825565b9150620007998262000965565b602082019050919050565b60006020820190508181036000830152620007bf816200077d565b9050919050565b6000620007d2620007e5565b9050620007e08282620008ac565b919050565b6000604051905090565b600067ffffffffffffffff8211156200080d576200080c62000911565b5b620008188262000954565b9050602081019050919050565b600082825260208201905092915050565b6000819050919050565b60005b838110156200086057808201518184015260208101905062000843565b8381111562000870576000848401525b50505050565b600060028204905060018216806200088f57607f821691505b60208210811415620008a657620008a5620008e2565b5b50919050565b620008b78262000954565b810181811067ffffffffffffffff82111715620008d957620008d862000911565b5b80604052505050565b7f4e487b7100000000000000000000000000000000000000000000000000000000600052602260045260246000fd5b7f4e487b7100000000000000000000000000000000000000000000000000000000600052604160045260246000fd5b600080fd5b600080fd5b600080fd5b600080fd5b6000601f19601f8301169050919050565b7f4f776e61626c653a2063616c6c6572206973206e6f7420746865206f776e6572600082015250565b620009998162000836565b8114620009a557600080fd5b50565b61508380620009b86000396000f3fe6080604052600436106102725760003560e01c80636caede3d1161014f578063b767a098116100c1578063d0eb26b01161007a578063d0eb26b01461095c578063d5abeb0114610985578063da3ef23f146109b0578063e985e9c5146109d9578063edec5f2714610a16578063f2fde38b14610a3f57610272565b8063b767a0981461083a578063b88d4fde14610863578063ba4e5c491461088c578063ba7d2c76146108c9578063c6682862146108f4578063c87b56dd1461091f57610272565b806395d89b411161011357806395d89b411461075f578063a0712d681461078a578063a22cb465146107a6578063a45ba8e7146107cf578063a475b5dd146107fa578063b071401b1461081157610272565b80636caede3d1461068a57806370a08231146106b5578063715018a6146106f25780638da5cb5b1461070957806394354fd01461073457610272565b80633ccfd60b116101e85780634fdd43cb116101ac5780634fdd43cb1461057a57806351830227146105a357806355f804b3146105ce5780635c975abb146105f75780636352211e146106225780636c0360eb1461065f57610272565b80633ccfd60b146104a457806342842e0e146104ae578063438b6300146104d757806344a0d68a146105145780634f6ccce71461053d57610272565b806313faede61161023a57806313faede61461036e57806318160ddd1461039957806318cae269146103c457806323b872dd146104015780632f745c591461042a5780633af32abf1461046757610272565b806301ffc9a71461027757806302329a29146102b457806306fdde03146102dd578063081812fc14610308578063095ea7b314610345575b600080fd5b34801561028357600080fd5b5061029e60048036038101906102999190613a26565b610a68565b6040516102ab9190614127565b60405180910390f35b3480156102c057600080fd5b506102db60048036038101906102d691906139f9565b610ae2565b005b3480156102e957600080fd5b506102f2610b7b565b6040516102ff9190614142565b60405180910390f35b34801561031457600080fd5b5061032f600480360381019061032a9190613ac9565b610c0d565b60405161033c919061409e565b60405180910390f35b34801561035157600080fd5b5061036c6004803603810190610367919061396c565b610c92565b005b34801561037a57600080fd5b50610383610daa565b6040516103909190614484565b60405180910390f35b3480156103a557600080fd5b506103ae610db0565b6040516103bb9190614484565b60405180910390f35b3480156103d057600080fd5b506103eb60048036038101906103e691906137e9565b610dbd565b6040516103f89190614484565b60405180910390f35b34801561040d57600080fd5b5061042860048036038101906104239190613856565b610dd5565b005b34801561043657600080fd5b50610451600480360381019061044c919061396c565b610e35565b60405161045e9190614484565b60405180910390f35b34801561047357600080fd5b5061048e600480360381019061048991906137e9565b610eda565b60405161049b9190614127565b60405180910390f35b6104ac610f8c565b005b3480156104ba57600080fd5b506104d560048036038101906104d09190613856565b611088565b005b3480156104e357600080fd5b506104fe60048036038101906104f991906137e9565b6110a8565b60405161050b9190614105565b60405180910390f35b34801561052057600080fd5b5061053b60048036038101906105369190613ac9565b611156565b005b34801561054957600080fd5b50610564600480360381019061055f9190613ac9565b6111dc565b6040516105719190614484565b60405180910390f35b34801561058657600080fd5b506105a1600480360381019061059c9190613a80565b61124d565b005b3480156105af57600080fd5b506105b86112e3565b6040516105c59190614127565b60405180910390f35b3480156105da57600080fd5b506105f560048036038101906105f09190613a80565b6112f6565b005b34801561060357600080fd5b5061060c61138c565b6040516106199190614127565b60405180910390f35b34801561062e57600080fd5b5061064960048036038101906106449190613ac9565b61139f565b604051610656919061409e565b60405180910390f35b34801561066b57600080fd5b50610674611451565b6040516106819190614142565b60405180910390f35b34801561069657600080fd5b5061069f6114df565b6040516106ac9190614127565b60405180910390f35b3480156106c157600080fd5b506106dc60048036038101906106d791906137e9565b6114f2565b6040516106e99190614484565b60405180910390f35b3480156106fe57600080fd5b506107076115aa565b005b34801561071557600080fd5b5061071e611632565b60405161072b919061409e565b60405180910390f35b34801561074057600080fd5b5061074961165c565b6040516107569190614484565b60405180910390f35b34801561076b57600080fd5b50610774611662565b6040516107819190614142565b60405180910390f35b6107a4600480360381019061079f9190613ac9565b6116f4565b005b3480156107b257600080fd5b506107cd60048036038101906107c8919061392c565b611a3d565b005b3480156107db57600080fd5b506107e4611a53565b6040516107f19190614142565b60405180910390f35b34801561080657600080fd5b5061080f611ae1565b005b34801561081d57600080fd5b5061083860048036038101906108339190613ac9565b611b7a565b005b34801561084657600080fd5b50610861600480360381019061085c91906139f9565b611c00565b005b34801561086f57600080fd5b5061088a600480360381019061088591906138a9565b611c99565b005b34801561089857600080fd5b506108b360048036038101906108ae9190613ac9565b611cfb565b6040516108c0919061409e565b60405180910390f35b3480156108d557600080fd5b506108de611d3a565b6040516108eb9190614484565b60405180910390f35b34801561090057600080fd5b50610909611d40565b6040516109169190614142565b60405180910390f35b34801561092b57600080fd5b5061094660048036038101906109419190613ac9565b611dce565b6040516109539190614142565b60405180910390f35b34801561096857600080fd5b50610983600480360381019061097e9190613ac9565b611f27565b005b34801561099157600080fd5b5061099a611fad565b6040516109a79190614484565b60405180910390f35b3480156109bc57600080fd5b506109d760048036038101906109d29190613a80565b611fb3565b005b3480156109e557600080fd5b50610a0060048036038101906109fb9190613816565b612049565b604051610a0d9190614127565b60405180910390f35b348015610a2257600080fd5b50610a3d6004803603810190610a3891906139ac565b6120dd565b005b348015610a4b57600080fd5b50610a666004803603810190610a6191906137e9565b61217d565b005b60007f780e9d63000000000000000000000000000000000000000000000000000000007bffffffffffffffffffffffffffffffffffffffffffffffffffffffff1916827bffffffffffffffffffffffffffffffffffffffffffffffffffffffff19161480610adb5750610ada82612275565b5b9050919050565b610aea612357565b73ffffffffffffffffffffffffffffffffffffffff16610b08611632565b73ffffffffffffffffffffffffffffffffffffffff1614610b5e576040517f08c379a0000000000000000000000000000000000000000000000000000000008152600401610b5590614364565b60405180910390fd5b80601260006101000a81548160ff02191690831515021790555050565b606060008054610b8a9061478d565b80601f0160208091040260200160405190810160405280929190818152602001828054610bb69061478d565b8015610c035780601f10610bd857610100808354040283529160200191610c03565b820191906000526020600020905b815481529060010190602001808311610be657829003601f168201915b5050505050905090565b6000610c188261235f565b610c57576040517f08c379a0000000000000000000000000000000000000000000000000000000008152600401610c4e90614344565b60405180910390fd5b6004600083815260200190815260200160002060009054906101000a900473ffffffffffffffffffffffffffffffffffffffff169050919050565b6000610c9d8261139f565b90508073ffffffffffffffffffffffffffffffffffffffff168373ffffffffffffffffffffffffffffffffffffffff161415610d0e576040517f08c379a0000000000000000000000000000000000000000000000000000000008152600401610d05906143c4565b60405180910390fd5b8073ffffffffffffffffffffffffffffffffffffffff16610d2d612357565b73ffffffffffffffffffffffffffffffffffffffff161480610d5c5750610d5b81610d56612357565b612049565b5b610d9b576040517f08c379a0000000000000000000000000000000000000000000000000000000008152600401610d9290614284565b60405180910390fd5b610da583836123cb565b505050565b600e5481565b6000600880549050905090565b60146020528060005260406000206000915090505481565b610de6610de0612357565b82612484565b610e25576040517f08c379a0000000000000000000000000000000000000000000000000000000008152600401610e1c90614404565b60405180910390fd5b610e30838383612562565b505050565b6000610e40836114f2565b8210610e81576040517f08c379a0000000000000000000000000000000000000000000000000000000008152600401610e7890614164565b60405180910390fd5b600660008473ffffffffffffffffffffffffffffffffffffffff1673ffffffffffffffffffffffffffffffffffffffff168152602001908152602001600020600083815260200190815260200160002054905092915050565b600080601380549050905060005b81811015610f80578373ffffffffffffffffffffffffffffffffffffffff1660138281548110610f1b57610f1a614926565b5b9060005260206000200160009054906101000a900473ffffffffffffffffffffffffffffffffffffffff1673ffffffffffffffffffffffffffffffffffffffff161415610f6d57600192505050610f87565b8080610f78906147f0565b915050610ee8565b5060009150505b919050565b610f94612357565b73ffffffffffffffffffffffffffffffffffffffff16610fb2611632565b73ffffffffffffffffffffffffffffffffffffffff1614611008576040517f08c379a0000000000000000000000000000000000000000000000000000000008152600401610fff90614364565b60405180910390fd5b6000611012611632565b73ffffffffffffffffffffffffffffffffffffffff164760405161103590614089565b60006040518083038185875af1925050503d8060008114611072576040519150601f19603f3d011682016040523d82523d6000602084013e611077565b606091505b505090508061108557600080fd5b50565b6110a383838360405180602001604052806000815250611c99565b505050565b606060006110b5836114f2565b905060008167ffffffffffffffff8111156110d3576110d2614955565b5b6040519080825280602002602001820160405280156111015781602001602082028036833780820191505090505b50905060005b8281101561114b576111198582610e35565b82828151811061112c5761112b614926565b5b6020026020010181815250508080611143906147f0565b915050611107565b508092505050919050565b61115e612357565b73ffffffffffffffffffffffffffffffffffffffff1661117c611632565b73ffffffffffffffffffffffffffffffffffffffff16146111d2576040517f08c379a00000000000000000000000000000000000000000000000000000000081526004016111c990614364565b60405180910390fd5b80600e8190555050565b60006111e6610db0565b8210611227576040517f08c379a000000000000000000000000000000000000000000000000000000000815260040161121e90614424565b60405180910390fd5b6008828154811061123b5761123a614926565b5b90600052602060002001549050919050565b611255612357565b73ffffffffffffffffffffffffffffffffffffffff16611273611632565b73ffffffffffffffffffffffffffffffffffffffff16146112c9576040517f08c379a00000000000000000000000000000000000000000000000000000000081526004016112c090614364565b60405180910390fd5b80600d90805190602001906112df9291906134e6565b5050565b601260019054906101000a900460ff1681565b6112fe612357565b73ffffffffffffffffffffffffffffffffffffffff1661131c611632565b73ffffffffffffffffffffffffffffffffffffffff1614611372576040517f08c379a000000000000000000000000000000000000000000000000000000000815260040161136990614364565b60405180910390fd5b80600b90805190602001906113889291906134e6565b5050565b601260009054906101000a900460ff1681565b6000806002600084815260200190815260200160002060009054906101000a900473ffffffffffffffffffffffffffffffffffffffff169050600073ffffffffffffffffffffffffffffffffffffffff168173ffffffffffffffffffffffffffffffffffffffff161415611448576040517f08c379a000000000000000000000000000000000000000000000000000000000815260040161143f906142c4565b60405180910390fd5b80915050919050565b600b805461145e9061478d565b80601f016020809104026020016040519081016040528092919081815260200182805461148a9061478d565b80156114d75780601f106114ac576101008083540402835291602001916114d7565b820191906000526020600020905b8154815290600101906020018083116114ba57829003601f168201915b505050505081565b601260029054906101000a900460ff1681565b60008073ffffffffffffffffffffffffffffffffffffffff168273ffffffffffffffffffffffffffffffffffffffff161415611563576040517f08c379a000000000000000000000000000000000000000000000000000000000815260040161155a906142a4565b60405180910390fd5b600360008373ffffffffffffffffffffffffffffffffffffffff1673ffffffffffffffffffffffffffffffffffffffff168152602001908152602001600020549050919050565b6115b2612357565b73ffffffffffffffffffffffffffffffffffffffff166115d0611632565b73ffffffffffffffffffffffffffffffffffffffff1614611626576040517f08c379a000000000000000000000000000000000000000000000000000000000815260040161161d90614364565b60405180910390fd5b61163060006127c9565b565b6000600a60009054906101000a900473ffffffffffffffffffffffffffffffffffffffff16905090565b60105481565b6060600180546116719061478d565b80601f016020809104026020016040519081016040528092919081815260200182805461169d9061478d565b80156116ea5780601f106116bf576101008083540402835291602001916116ea565b820191906000526020600020905b8154815290600101906020018083116116cd57829003601f168201915b5050505050905090565b601260009054906101000a900460ff1615611744576040517f08c379a000000000000000000000000000000000000000000000000000000000815260040161173b90614384565b60405180910390fd5b600061174e610db0565b905060008211611793576040517f08c379a000000000000000000000000000000000000000000000000000000000815260040161178a90614464565b60405180910390fd5b6010548211156117d8576040517f08c379a00000000000000000000000000000000000000000000000000000000081526004016117cf90614304565b60405180910390fd5b600f5482826117e791906145c2565b1115611828576040517f08c379a000000000000000000000000000000000000000000000000000000000815260040161181f906142e4565b60405180910390fd5b611830611632565b73ffffffffffffffffffffffffffffffffffffffff163373ffffffffffffffffffffffffffffffffffffffff16146119ad5760011515601260029054906101000a900460ff161515141561195c5761188733610eda565b6118c6576040517f08c379a00000000000000000000000000000000000000000000000000000000081526004016118bd90614444565b60405180910390fd5b6000601460003373ffffffffffffffffffffffffffffffffffffffff1673ffffffffffffffffffffffffffffffffffffffff168152602001908152602001600020549050601154838261191991906145c2565b111561195a576040517f08c379a000000000000000000000000000000000000000000000000000000000815260040161195190614204565b60405180910390fd5b505b81600e5461196a9190614649565b3410156119ac576040517f08c379a00000000000000000000000000000000000000000000000000000000081526004016119a3906143e4565b60405180910390fd5b5b6000600190505b828111611a3857601460003373ffffffffffffffffffffffffffffffffffffffff1673ffffffffffffffffffffffffffffffffffffffff1681526020019081526020016000206000815480929190611a0b906147f0565b9190505550611a25338284611a2091906145c2565b61288f565b8080611a30906147f0565b9150506119b4565b505050565b611a4f611a48612357565b83836128ad565b5050565b600d8054611a609061478d565b80601f0160208091040260200160405190810160405280929190818152602001828054611a8c9061478d565b8015611ad95780601f10611aae57610100808354040283529160200191611ad9565b820191906000526020600020905b815481529060010190602001808311611abc57829003601f168201915b505050505081565b611ae9612357565b73ffffffffffffffffffffffffffffffffffffffff16611b07611632565b73ffffffffffffffffffffffffffffffffffffffff1614611b5d576040517f08c379a0000000000000000000000000000000000000000000000000000000008152600401611b5490614364565b60405180910390fd5b6001601260016101000a81548160ff021916908315150217905550565b611b82612357565b73ffffffffffffffffffffffffffffffffffffffff16611ba0611632565b73ffffffffffffffffffffffffffffffffffffffff1614611bf6576040517f08c379a0000000000000000000000000000000000000000000000000000000008152600401611bed90614364565b60405180910390fd5b8060108190555050565b611c08612357565b73ffffffffffffffffffffffffffffffffffffffff16611c26611632565b73ffffffffffffffffffffffffffffffffffffffff1614611c7c576040517f08c379a0000000000000000000000000000000000000000000000000000000008152600401611c7390614364565b60405180910390fd5b80601260026101000a81548160ff02191690831515021790555050565b611caa611ca4612357565b83612484565b611ce9576040517f08c379a0000000000000000000000000000000000000000000000000000000008152600401611ce090614404565b60405180910390fd5b611cf584848484612a1a565b50505050565b60138181548110611d0b57600080fd5b906000526020600020016000915054906101000a900473ffffffffffffffffffffffffffffffffffffffff1681565b60115481565b600c8054611d4d9061478d565b80601f0160208091040260200160405190810160405280929190818152602001828054611d799061478d565b8015611dc65780601f10611d9b57610100808354040283529160200191611dc6565b820191906000526020600020905b815481529060010190602001808311611da957829003601f168201915b505050505081565b6060611dd98261235f565b611e18576040517f08c379a0000000000000000000000000000000000000000000000000000000008152600401611e0f906143a4565b60405180910390fd5b60001515601260019054906101000a900460ff1615151415611ec657600d8054611e419061478d565b80601f0160208091040260200160405190810160405280929190818152602001828054611e6d9061478d565b8015611eba5780601f10611e8f57610100808354040283529160200191611eba565b820191906000526020600020905b815481529060010190602001808311611e9d57829003601f168201915b50505050509050611f22565b6000611ed0612a76565b90506000815111611ef05760405180602001604052806000815250611f1e565b80611efa84612b08565b600c604051602001611f0e93929190614058565b6040516020818303038152906040525b9150505b919050565b611f2f612357565b73ffffffffffffffffffffffffffffffffffffffff16611f4d611632565b73ffffffffffffffffffffffffffffffffffffffff1614611fa3576040517f08c379a0000000000000000000000000000000000000000000000000000000008152600401611f9a90614364565b60405180910390fd5b8060118190555050565b600f5481565b611fbb612357565b73ffffffffffffffffffffffffffffffffffffffff16611fd9611632565b73ffffffffffffffffffffffffffffffffffffffff161461202f576040517f08c379a000000000000000000000000000000000000000000000000000000000815260040161202690614364565b60405180910390fd5b80600c90805190602001906120459291906134e6565b5050565b6000600560008473ffffffffffffffffffffffffffffffffffffffff1673ffffffffffffffffffffffffffffffffffffffff16815260200190815260200160002060008373ffffffffffffffffffffffffffffffffffffffff1673ffffffffffffffffffffffffffffffffffffffff16815260200190815260200160002060009054906101000a900460ff16905092915050565b6120e5612357565b73ffffffffffffffffffffffffffffffffffffffff16612103611632565b73ffffffffffffffffffffffffffffffffffffffff1614612159576040517f08c379a000000000000000000000000000000000000000000000000000000000815260040161215090614364565b60405180910390fd5b60136000612167919061356c565b81816013919061217892919061358d565b505050565b612185612357565b73ffffffffffffffffffffffffffffffffffffffff166121a3611632565b73ffffffffffffffffffffffffffffffffffffffff16146121f9576040517f08c379a00000000000000000000000000000000000000000000000000000000081526004016121f090614364565b60405180910390fd5b600073ffffffffffffffffffffffffffffffffffffffff168173ffffffffffffffffffffffffffffffffffffffff161415612269576040517f08c379a0000000000000000000000000000000000000000000000000000000008152600401612260906141a4565b60405180910390fd5b612272816127c9565b50565b60007f80ac58cd000000000000000000000000000000000000000000000000000000007bffffffffffffffffffffffffffffffffffffffffffffffffffffffff1916827bffffffffffffffffffffffffffffffffffffffffffffffffffffffff1916148061234057507f5b5e139f000000000000000000000000000000000000000000000000000000007bffffffffffffffffffffffffffffffffffffffffffffffffffffffff1916827bffffffffffffffffffffffffffffffffffffffffffffffffffffffff1916145b80612350575061234f82612c69565b5b9050919050565b600033905090565b60008073ffffffffffffffffffffffffffffffffffffffff166002600084815260200190815260200160002060009054906101000a900473ffffffffffffffffffffffffffffffffffffffff1673ffffffffffffffffffffffffffffffffffffffff1614159050919050565b816004600083815260200190815260200160002060006101000a81548173ffffffffffffffffffffffffffffffffffffffff021916908373ffffffffffffffffffffffffffffffffffffffff160217905550808273ffffffffffffffffffffffffffffffffffffffff1661243e8361139f565b73ffffffffffffffffffffffffffffffffffffffff167f8c5be1e5ebec7d5bd14f71427d1e84f3dd0314c0f7b2291e5b200ac8c7c3b92560405160405180910390a45050565b600061248f8261235f565b6124ce576040517f08c379a00000000000000000000000000000000000000000000000000000000081526004016124c590614264565b60405180910390fd5b60006124d98361139f565b90508073ffffffffffffffffffffffffffffffffffffffff168473ffffffffffffffffffffffffffffffffffffffff16148061251b575061251a8185612049565b5b8061255957508373ffffffffffffffffffffffffffffffffffffffff1661254184610c0d565b73ffffffffffffffffffffffffffffffffffffffff16145b91505092915050565b8273ffffffffffffffffffffffffffffffffffffffff166125828261139f565b73ffffffffffffffffffffffffffffffffffffffff16146125d8576040517f08c379a00000000000000000000000000000000000000000000000000000000081526004016125cf906141c4565b60405180910390fd5b600073ffffffffffffffffffffffffffffffffffffffff168273ffffffffffffffffffffffffffffffffffffffff161415612648576040517f08c379a000000000000000000000000000000000000000000000000000000000815260040161263f90614224565b60405180910390fd5b612653838383612cd3565b61265e6000826123cb565b6001600360008573ffffffffffffffffffffffffffffffffffffffff1673ffffffffffffffffffffffffffffffffffffffff16815260200190815260200160002060008282546126ae91906146a3565b925050819055506001600360008473ffffffffffffffffffffffffffffffffffffffff1673ffffffffffffffffffffffffffffffffffffffff168152602001908152602001600020600082825461270591906145c2565b92505081905550816002600083815260200190815260200160002060006101000a81548173ffffffffffffffffffffffffffffffffffffffff021916908373ffffffffffffffffffffffffffffffffffffffff160217905550808273ffffffffffffffffffffffffffffffffffffffff168473ffffffffffffffffffffffffffffffffffffffff167fddf252ad1be2c89b69c2b068fc378daa952ba7f163c4a11628f55a4df523b3ef60405160405180910390a46127c4838383612de7565b505050565b6000600a60009054906101000a900473ffffffffffffffffffffffffffffffffffffffff16905081600a60006101000a81548173ffffffffffffffffffffffffffffffffffffffff021916908373ffffffffffffffffffffffffffffffffffffffff1602179055508173ffffffffffffffffffffffffffffffffffffffff168173ffffffffffffffffffffffffffffffffffffffff167f8be0079c531659141344cd1fd0a4f28419497f9722a3daafe3b4186f6b6457e060405160405180910390a35050565b6128a9828260405180602001604052806000815250612dec565b5050565b8173ffffffffffffffffffffffffffffffffffffffff168373ffffffffffffffffffffffffffffffffffffffff16141561291c576040517f08c379a000000000000000000000000000000000000000000000000000000000815260040161291390614244565b60405180910390fd5b80600560008573ffffffffffffffffffffffffffffffffffffffff1673ffffffffffffffffffffffffffffffffffffffff16815260200190815260200160002060008473ffffffffffffffffffffffffffffffffffffffff1673ffffffffffffffffffffffffffffffffffffffff16815260200190815260200160002060006101000a81548160ff0219169083151502179055508173ffffffffffffffffffffffffffffffffffffffff168373ffffffffffffffffffffffffffffffffffffffff167f17307eab39ab6107e8899845ad3d59bd9653f200f220920489ca2b5937696c3183604051612a0d9190614127565b60405180910390a3505050565b612a25848484612562565b612a3184848484612e47565b612a70576040517f08c379a0000000000000000000000000000000000000000000000000000000008152600401612a6790614184565b60405180910390fd5b50505050565b6060600b8054612a859061478d565b80601f0160208091040260200160405190810160405280929190818152602001828054612ab19061478d565b8015612afe5780601f10612ad357610100808354040283529160200191612afe565b820191906000526020600020905b815481529060010190602001808311612ae157829003601f168201915b5050505050905090565b60606000821415612b50576040518060400160405280600181526020017f30000000000000000000000000000000000000000000000000000000000000008152509050612c64565b600082905060005b60008214612b82578080612b6b906147f0565b915050600a82612b7b9190614618565b9150612b58565b60008167ffffffffffffffff811115612b9e57612b9d614955565b5b6040519080825280601f01601f191660200182016040528015612bd05781602001600182028036833780820191505090505b5090505b60008514612c5d57600182612be991906146a3565b9150600a85612bf89190614839565b6030612c0491906145c2565b60f81b818381518110612c1a57612c19614926565b5b60200101907effffffffffffffffffffffffffffffffffffffffffffffffffffffffffffff1916908160001a905350600a85612c569190614618565b9450612bd4565b8093505050505b919050565b60007f01ffc9a7000000000000000000000000000000000000000000000000000000007bffffffffffffffffffffffffffffffffffffffffffffffffffffffff1916827bffffffffffffffffffffffffffffffffffffffffffffffffffffffff1916149050919050565b612cde838383612fde565b600073ffffffffffffffffffffffffffffffffffffffff168373ffffffffffffffffffffffffffffffffffffffff161415612d2157612d1c81612fe3565b612d60565b8173ffffffffffffffffffffffffffffffffffffffff168373ffffffffffffffffffffffffffffffffffffffff1614612d5f57612d5e838261302c565b5b5b600073ffffffffffffffffffffffffffffffffffffffff168273ffffffffffffffffffffffffffffffffffffffff161415612da357612d9e81613199565b612de2565b8273ffffffffffffffffffffffffffffffffffffffff168273ffffffffffffffffffffffffffffffffffffffff1614612de157612de0828261326a565b5b5b505050565b505050565b612df683836132e9565b612e036000848484612e47565b612e42576040517f08c379a0000000000000000000000000000000000000000000000000000000008152600401612e3990614184565b60405180910390fd5b505050565b6000612e688473ffffffffffffffffffffffffffffffffffffffff166134c3565b15612fd1578373ffffffffffffffffffffffffffffffffffffffff1663150b7a02612e91612357565b8786866040518563ffffffff1660e01b8152600401612eb394939291906140b9565b602060405180830381600087803b158015612ecd57600080fd5b505af1925050508015612efe57506040513d601f19601f82011682018060405250810190612efb9190613a53565b60015b612f81573d8060008114612f2e576040519150601f19603f3d011682016040523d82523d6000602084013e612f33565b606091505b50600081511415612f79576040517f08c379a0000000000000000000000000000000000000000000000000000000008152600401612f7090614184565b60405180910390fd5b805181602001fd5b63150b7a0260e01b7bffffffffffffffffffffffffffffffffffffffffffffffffffffffff1916817bffffffffffffffffffffffffffffffffffffffffffffffffffffffff191614915050612fd6565b600190505b949350505050565b505050565b6008805490506009600083815260200190815260200160002081905550600881908060018154018082558091505060019003906000526020600020016000909190919091505550565b60006001613039846114f2565b61304391906146a3565b9050600060076000848152602001908152602001600020549050818114613128576000600660008673ffffffffffffffffffffffffffffffffffffffff1673ffffffffffffffffffffffffffffffffffffffff168152602001908152602001600020600084815260200190815260200160002054905080600660008773ffffffffffffffffffffffffffffffffffffffff1673ffffffffffffffffffffffffffffffffffffffff168152602001908152602001600020600084815260200190815260200160002081905550816007600083815260200190815260200160002081905550505b6007600084815260200190815260200160002060009055600660008573ffffffffffffffffffffffffffffffffffffffff1673ffffffffffffffffffffffffffffffffffffffff16815260200190815260200160002060008381526020019081526020016000206000905550505050565b600060016008805490506131ad91906146a3565b90506000600960008481526020019081526020016000205490506000600883815481106131dd576131dc614926565b5b9060005260206000200154905080600883815481106131ff576131fe614926565b5b90600052602060002001819055508160096000838152602001908152602001600020819055506009600085815260200190815260200160002060009055600880548061324e5761324d6148f7565b5b6001900381819060005260206000200160009055905550505050565b6000613275836114f2565b905081600660008573ffffffffffffffffffffffffffffffffffffffff1673ffffffffffffffffffffffffffffffffffffffff168152602001908152602001600020600083815260200190815260200160002081905550806007600084815260200190815260200160002081905550505050565b600073ffffffffffffffffffffffffffffffffffffffff168273ffffffffffffffffffffffffffffffffffffffff161415613359576040517f08c379a000000000000000000000000000000000000000000000000000000000815260040161335090614324565b60405180910390fd5b6133628161235f565b156133a2576040517f08c379a0000000000000000000000000000000000000000000000000000000008152600401613399906141e4565b60405180910390fd5b6133ae60008383612cd3565b6001600360008473ffffffffffffffffffffffffffffffffffffffff1673ffffffffffffffffffffffffffffffffffffffff16815260200190815260200160002060008282546133fe91906145c2565b92505081905550816002600083815260200190815260200160002060006101000a81548173ffffffffffffffffffffffffffffffffffffffff021916908373ffffffffffffffffffffffffffffffffffffffff160217905550808273ffffffffffffffffffffffffffffffffffffffff16600073ffffffffffffffffffffffffffffffffffffffff167fddf252ad1be2c89b69c2b068fc378daa952ba7f163c4a11628f55a4df523b3ef60405160405180910390a46134bf60008383612de7565b5050565b6000808273ffffffffffffffffffffffffffffffffffffffff163b119050919050565b8280546134f29061478d565b90600052602060002090601f016020900481019282613514576000855561355b565b82601f1061352d57805160ff191683800117855561355b565b8280016001018555821561355b579182015b8281111561355a57825182559160200191906001019061353f565b5b509050613568919061362d565b5090565b508054600082559060005260206000209081019061358a919061362d565b50565b82805482825590600052602060002090810192821561361c579160200282015b8281111561361b57823573ffffffffffffffffffffffffffffffffffffffff168260006101000a81548173ffffffffffffffffffffffffffffffffffffffff021916908373ffffffffffffffffffffffffffffffffffffffff160217905550916020019190600101906135ad565b5b509050613629919061362d565b5090565b5b8082111561364657600081600090555060010161362e565b5090565b600061365d613658846144c4565b61449f565b90508281526020810184848401111561367957613678614993565b5b61368484828561474b565b509392505050565b600061369f61369a846144f5565b61449f565b9050828152602081018484840111156136bb576136ba614993565b5b6136c684828561474b565b509392505050565b6000813590506136dd81614ff1565b92915050565b60008083601f8401126136f9576136f8614989565b5b8235905067ffffffffffffffff81111561371657613715614984565b5b6020830191508360208202830111156137325761373161498e565b5b9250929050565b60008135905061374881615008565b92915050565b60008135905061375d8161501f565b92915050565b6000815190506137728161501f565b92915050565b600082601f83011261378d5761378c614989565b5b813561379d84826020860161364a565b91505092915050565b600082601f8301126137bb576137ba614989565b5b81356137cb84826020860161368c565b91505092915050565b6000813590506137e381615036565b92915050565b6000602082840312156137ff576137fe61499d565b5b600061380d848285016136ce565b91505092915050565b6000806040838503121561382d5761382c61499d565b5b600061383b858286016136ce565b925050602061384c858286016136ce565b9150509250929050565b60008060006060848603121561386f5761386e61499d565b5b600061387d868287016136ce565b935050602061388e868287016136ce565b925050604061389f868287016137d4565b9150509250925092565b600080600080608085870312156138c3576138c261499d565b5b60006138d1878288016136ce565b94505060206138e2878288016136ce565b93505060406138f3878288016137d4565b925050606085013567ffffffffffffffff81111561391457613913614998565b5b61392087828801613778565b91505092959194509250565b600080604083850312156139435761394261499d565b5b6000613951858286016136ce565b925050602061396285828601613739565b9150509250929050565b600080604083850312156139835761398261499d565b5b6000613991858286016136ce565b92505060206139a2858286016137d4565b9150509250929050565b600080602083850312156139c3576139c261499d565b5b600083013567ffffffffffffffff8111156139e1576139e0614998565b5b6139ed858286016136e3565b92509250509250929050565b600060208284031215613a0f57613a0e61499d565b5b6000613a1d84828501613739565b91505092915050565b600060208284031215613a3c57613a3b61499d565b5b6000613a4a8482850161374e565b91505092915050565b600060208284031215613a6957613a6861499d565b5b6000613a7784828501613763565b91505092915050565b600060208284031215613a9657613a9561499d565b5b600082013567ffffffffffffffff811115613ab457613ab3614998565b5b613ac0848285016137a6565b91505092915050565b600060208284031215613adf57613ade61499d565b5b6000613aed848285016137d4565b91505092915050565b6000613b02838361403a565b60208301905092915050565b613b17816146d7565b82525050565b6000613b288261454b565b613b328185614579565b9350613b3d83614526565b8060005b83811015613b6e578151613b558882613af6565b9750613b608361456c565b925050600181019050613b41565b5085935050505092915050565b613b84816146e9565b82525050565b6000613b9582614556565b613b9f818561458a565b9350613baf81856020860161475a565b613bb8816149a2565b840191505092915050565b6000613bce82614561565b613bd881856145a6565b9350613be881856020860161475a565b613bf1816149a2565b840191505092915050565b6000613c0782614561565b613c1181856145b7565b9350613c2181856020860161475a565b80840191505092915050565b60008154613c3a8161478d565b613c4481866145b7565b94506001821660008114613c5f5760018114613c7057613ca3565b60ff19831686528186019350613ca3565b613c7985614536565b60005b83811015613c9b57815481890152600182019150602081019050613c7c565b838801955050505b50505092915050565b6000613cb9602b836145a6565b9150613cc4826149b3565b604082019050919050565b6000613cdc6032836145a6565b9150613ce782614a02565b604082019050919050565b6000613cff6026836145a6565b9150613d0a82614a51565b604082019050919050565b6000613d226025836145a6565b9150613d2d82614aa0565b604082019050919050565b6000613d45601c836145a6565b9150613d5082614aef565b602082019050919050565b6000613d68601c836145a6565b9150613d7382614b18565b602082019050919050565b6000613d8b6024836145a6565b9150613d9682614b41565b604082019050919050565b6000613dae6019836145a6565b9150613db982614b90565b602082019050919050565b6000613dd1602c836145a6565b9150613ddc82614bb9565b604082019050919050565b6000613df46038836145a6565b9150613dff82614c08565b604082019050919050565b6000613e17602a836145a6565b9150613e2282614c57565b604082019050919050565b6000613e3a6029836145a6565b9150613e4582614ca6565b604082019050919050565b6000613e5d6016836145a6565b9150613e6882614cf5565b602082019050919050565b6000613e806024836145a6565b9150613e8b82614d1e565b604082019050919050565b6000613ea36020836145a6565b9150613eae82614d6d565b602082019050919050565b6000613ec6602c836145a6565b9150613ed182614d96565b604082019050919050565b6000613ee96020836145a6565b9150613ef482614de5565b602082019050919050565b6000613f0c6016836145a6565b9150613f1782614e0e565b602082019050919050565b6000613f2f602f836145a6565b9150613f3a82614e37565b604082019050919050565b6000613f526021836145a6565b9150613f5d82614e86565b604082019050919050565b6000613f7560008361459b565b9150613f8082614ed5565b600082019050919050565b6000613f986012836145a6565b9150613fa382614ed8565b602082019050919050565b6000613fbb6031836145a6565b9150613fc682614f01565b604082019050919050565b6000613fde602c836145a6565b9150613fe982614f50565b604082019050919050565b60006140016017836145a6565b915061400c82614f9f565b602082019050919050565b6000614024601b836145a6565b915061402f82614fc8565b602082019050919050565b61404381614741565b82525050565b61405281614741565b82525050565b60006140648286613bfc565b91506140708285613bfc565b915061407c8284613c2d565b9150819050949350505050565b600061409482613f68565b9150819050919050565b60006020820190506140b36000830184613b0e565b92915050565b60006080820190506140ce6000830187613b0e565b6140db6020830186613b0e565b6140e86040830185614049565b81810360608301526140fa8184613b8a565b905095945050505050565b6000602082019050818103600083015261411f8184613b1d565b905092915050565b600060208201905061413c6000830184613b7b565b92915050565b6000602082019050818103600083015261415c8184613bc3565b905092915050565b6000602082019050818103600083015261417d81613cac565b9050919050565b6000602082019050818103600083015261419d81613ccf565b9050919050565b600060208201905081810360008301526141bd81613cf2565b9050919050565b600060208201905081810360008301526141dd81613d15565b9050919050565b600060208201905081810360008301526141fd81613d38565b9050919050565b6000602082019050818103600083015261421d81613d5b565b9050919050565b6000602082019050818103600083015261423d81613d7e565b9050919050565b6000602082019050818103600083015261425d81613da1565b9050919050565b6000602082019050818103600083015261427d81613dc4565b9050919050565b6000602082019050818103600083015261429d81613de7565b9050919050565b600060208201905081810360008301526142bd81613e0a565b9050919050565b600060208201905081810360008301526142dd81613e2d565b9050919050565b600060208201905081810360008301526142fd81613e50565b9050919050565b6000602082019050818103600083015261431d81613e73565b9050919050565b6000602082019050818103600083015261433d81613e96565b9050919050565b6000602082019050818103600083015261435d81613eb9565b9050919050565b6000602082019050818103600083015261437d81613edc565b9050919050565b6000602082019050818103600083015261439d81613eff565b9050919050565b600060208201905081810360008301526143bd81613f22565b9050919050565b600060208201905081810360008301526143dd81613f45565b9050919050565b600060208201905081810360008301526143fd81613f8b565b9050919050565b6000602082019050818103600083015261441d81613fae565b9050919050565b6000602082019050818103600083015261443d81613fd1565b9050919050565b6000602082019050818103600083015261445d81613ff4565b9050919050565b6000602082019050818103600083015261447d81614017565b9050919050565b60006020820190506144996000830184614049565b92915050565b60006144a96144ba565b90506144b582826147bf565b919050565b6000604051905090565b600067ffffffffffffffff8211156144df576144de614955565b5b6144e8826149a2565b9050602081019050919050565b600067ffffffffffffffff8211156145105761450f614955565b5b614519826149a2565b9050602081019050919050565b6000819050602082019050919050565b60008190508160005260206000209050919050565b600081519050919050565b600081519050919050565b600081519050919050565b6000602082019050919050565b600082825260208201905092915050565b600082825260208201905092915050565b600081905092915050565b600082825260208201905092915050565b600081905092915050565b60006145cd82614741565b91506145d883614741565b9250827fffffffffffffffffffffffffffffffffffffffffffffffffffffffffffffffff0382111561460d5761460c61486a565b5b828201905092915050565b600061462382614741565b915061462e83614741565b92508261463e5761463d614899565b5b828204905092915050565b600061465482614741565b915061465f83614741565b9250817fffffffffffffffffffffffffffffffffffffffffffffffffffffffffffffffff04831182151516156146985761469761486a565b5b828202905092915050565b60006146ae82614741565b91506146b983614741565b9250828210156146cc576146cb61486a565b5b828203905092915050565b60006146e282614721565b9050919050565b60008115159050919050565b60007fffffffff0000000000000000000000000000000000000000000000000000000082169050919050565b600073ffffffffffffffffffffffffffffffffffffffff82169050919050565b6000819050919050565b82818337600083830152505050565b60005b8381101561477857808201518184015260208101905061475d565b83811115614787576000848401525b50505050565b600060028204905060018216806147a557607f821691505b602082108114156147b9576147b86148c8565b5b50919050565b6147c8826149a2565b810181811067ffffffffffffffff821117156147e7576147e6614955565b5b80604052505050565b60006147fb82614741565b91507fffffffffffffffffffffffffffffffffffffffffffffffffffffffffffffffff82141561482e5761482d61486a565b5b600182019050919050565b600061484482614741565b915061484f83614741565b92508261485f5761485e614899565b5b828206905092915050565b7f4e487b7100000000000000000000000000000000000000000000000000000000600052601160045260246000fd5b7f4e487b7100000000000000000000000000000000000000000000000000000000600052601260045260246000fd5b7f4e487b7100000000000000000000000000000000000000000000000000000000600052602260045260246000fd5b7f4e487b7100000000000000000000000000000000000000000000000000000000600052603160045260246000fd5b7f4e487b7100000000000000000000000000000000000000000000000000000000600052603260045260246000fd5b7f4e487b7100000000000000000000000000000000000000000000000000000000600052604160045260246000fd5b600080fd5b600080fd5b600080fd5b600080fd5b600080fd5b600080fd5b6000601f19601f8301169050919050565b7f455243373231456e756d657261626c653a206f776e657220696e646578206f7560008201527f74206f6620626f756e6473000000000000000000000000000000000000000000602082015250565b7f4552433732313a207472616e7366657220746f206e6f6e20455243373231526560008201527f63656976657220696d706c656d656e7465720000000000000000000000000000602082015250565b7f4f776e61626c653a206e6577206f776e657220697320746865207a65726f206160008201527f6464726573730000000000000000000000000000000000000000000000000000602082015250565b7f4552433732313a207472616e736665722066726f6d20696e636f72726563742060008201527f6f776e6572000000000000000000000000000000000000000000000000000000602082015250565b7f4552433732313a20746f6b656e20616c7265616479206d696e74656400000000600082015250565b7f6d6178204e465420706572206164647265737320657863656564656400000000600082015250565b7f4552433732313a207472616e7366657220746f20746865207a65726f2061646460008201527f7265737300000000000000000000000000000000000000000000000000000000602082015250565b7f4552433732313a20617070726f766520746f2063616c6c657200000000000000600082015250565b7f4552433732313a206f70657261746f7220717565727920666f72206e6f6e657860008201527f697374656e7420746f6b656e0000000000000000000000000000000000000000602082015250565b7f4552433732313a20617070726f76652063616c6c6572206973206e6f74206f7760008201527f6e6572206e6f7220617070726f76656420666f7220616c6c0000000000000000602082015250565b7f4552433732313a2062616c616e636520717565727920666f7220746865207a6560008201527f726f206164647265737300000000000000000000000000000000000000000000602082015250565b7f4552433732313a206f776e657220717565727920666f72206e6f6e657869737460008201527f656e7420746f6b656e0000000000000000000000000000000000000000000000602082015250565b7f6d6178204e4654206c696d697420657863656564656400000000000000000000600082015250565b7f6d6178206d696e7420616d6f756e74207065722073657373696f6e206578636560008201527f6564656400000000000000000000000000000000000000000000000000000000602082015250565b7f4552433732313a206d696e7420746f20746865207a65726f2061646472657373600082015250565b7f4552433732313a20617070726f76656420717565727920666f72206e6f6e657860008201527f697374656e7420746f6b656e0000000000000000000000000000000000000000602082015250565b7f4f776e61626c653a2063616c6c6572206973206e6f7420746865206f776e6572600082015250565b7f74686520636f6e74726163742069732070617573656400000000000000000000600082015250565b7f4552433732314d657461646174613a2055524920717565727920666f72206e6f60008201527f6e6578697374656e7420746f6b656e0000000000000000000000000000000000602082015250565b7f4552433732313a20617070726f76616c20746f2063757272656e74206f776e6560008201527f7200000000000000000000000000000000000000000000000000000000000000602082015250565b50565b7f696e73756666696369656e742066756e64730000000000000000000000000000600082015250565b7f4552433732313a207472616e736665722063616c6c6572206973206e6f74206f60008201527f776e6572206e6f7220617070726f766564000000000000000000000000000000602082015250565b7f455243373231456e756d657261626c653a20676c6f62616c20696e646578206f60008201527f7574206f6620626f756e64730000000000000000000000000000000000000000602082015250565b7f75736572206973206e6f742077686974656c6973746564000000000000000000600082015250565b7f6e65656420746f206d696e74206174206c656173742031204e46540000000000600082015250565b614ffa816146d7565b811461500557600080fd5b50565b615011816146e9565b811461501c57600080fd5b50565b615028816146f5565b811461503357600080fd5b50565b61503f81614741565b811461504a57600080fd5b5056fea264697066735822122024dabcc4c60440d51fdee549ae048ded122f4cb2d88c7a4db55b20991cc73ef664736f6c63430008070033",
  "linkReferences": {},
  "deployedLinkReferences": {}
}