{
  "_format": "hh-sol-artifact-1",
  "contractName": "NFTNormal",
  "sourceName": "contracts/NftContract.sol",
  "abi": [
    {
      "inputs": [
        {
          "internalType": "string",
          "name": "_name",
          "type": "string"
        },
        {
          "internalType": "string",
          "name": "_symbol",
          "type": "string"
        },
        {
          "internalType": "string",
          "name": "_initBaseURI",
          "type": "string"
        },
        {
          "internalType": "uint256",
          "name": "_cost",
          "type": "uint256"
        },
        {
          "internalType": "uint256",
          "name": "_maxSupply",
          "type": "uint256"
        },
        {
          "internalType": "uint256",
          "name": "_maxMintAmountPerTx",
          "type": "uint256"
        },
        {
          "internalType": "string",
          "name": "_hiddenMetadataUri",
          "type": "string"
        }
      ],
      "stateMutability": "nonpayable",
      "type": "constructor"
    },
    {
      "anonymous": false,
      "inputs": [
        {
          "indexed": true,
          "internalType": "address",
          "name": "owner",
          "type": "address"
        },
        {
          "indexed": true,
          "internalType": "address",
          "name": "approved",
          "type": "address"
        },
        {
          "indexed": true,
          "internalType": "uint256",
          "name": "tokenId",
          "type": "uint256"
        }
      ],
      "name": "Approval",
      "type": "event"
    },
    {
      "anonymous": false,
      "inputs": [
        {
          "indexed": true,
          "internalType": "address",
          "name": "owner",
          "type": "address"
        },
        {
          "indexed": true,
          "internalType": "address",
          "name": "operator",
          "type": "address"
        },
        {
          "indexed": false,
          "internalType": "bool",
          "name": "approved",
          "type": "bool"
        }
      ],
      "name": "ApprovalForAll",
      "type": "event"
    },
    {
      "anonymous": false,
      "inputs": [
        {
          "indexed": true,
          "internalType": "address",
          "name": "previousOwner",
          "type": "address"
        },
        {
          "indexed": true,
          "internalType": "address",
          "name": "newOwner",
          "type": "address"
        }
      ],
      "name": "OwnershipTransferred",
      "type": "event"
    },
    {
      "anonymous": false,
      "inputs": [
        {
          "indexed": true,
          "internalType": "address",
          "name": "from",
          "type": "address"
        },
        {
          "indexed": true,
          "internalType": "address",
          "name": "to",
          "type": "address"
        },
        {
          "indexed": true,
          "internalType": "uint256",
          "name": "tokenId",
          "type": "uint256"
        }
      ],
      "name": "Transfer",
      "type": "event"
    },
    {
      "inputs": [
        {
          "internalType": "address",
          "name": "",
          "type": "address"
        }
      ],
      "name": "addressMintedBalance",
      "outputs": [
        {
          "internalType": "uint256",
          "name": "",
          "type": "uint256"
        }
      ],
      "stateMutability": "view",
      "type": "function"
    },
    {
      "inputs": [
        {
          "internalType": "address",
          "name": "to",
          "type": "address"
        },
        {
          "internalType": "uint256",
          "name": "tokenId",
          "type": "uint256"
        }
      ],
      "name": "approve",
      "outputs": [],
      "stateMutability": "nonpayable",
      "type": "function"
    },
    {
      "inputs": [
        {
          "internalType": "address",
          "name": "owner",
          "type": "address"
        }
      ],
      "name": "balanceOf",
      "outputs": [
        {
          "internalType": "uint256",
          "name": "",
          "type": "uint256"
        }
      ],
      "stateMutability": "view",
      "type": "function"
    },
    {
      "inputs": [],
      "name": "baseExtension",
      "outputs": [
        {
          "internalType": "string",
          "name": "",
          "type": "string"
        }
      ],
      "stateMutability": "view",
      "type": "function"
    },
    {
      "inputs": [],
      "name": "baseURI",
      "outputs": [
        {
          "internalType": "string",
          "name": "",
          "type": "string"
        }
      ],
      "stateMutability": "view",
      "type": "function"
    },
    {
      "inputs": [],
      "name": "cost",
      "outputs": [
        {
          "internalType": "uint256",
          "name": "",
          "type": "uint256"
        }
      ],
      "stateMutability": "view",
      "type": "function"
    },
    {
      "inputs": [
        {
          "internalType": "uint256",
          "name": "tokenId",
          "type": "uint256"
        }
      ],
      "name": "getApproved",
      "outputs": [
        {
          "internalType": "address",
          "name": "",
          "type": "address"
        }
      ],
      "stateMutability": "view",
      "type": "function"
    },
    {
      "inputs": [],
      "name": "hiddenMetadataUri",
      "outputs": [
        {
          "internalType": "string",
          "name": "",
          "type": "string"
        }
      ],
      "stateMutability": "view",
      "type": "function"
    },
    {
      "inputs": [
        {
          "internalType": "address",
          "name": "owner",
          "type": "address"
        },
        {
          "internalType": "address",
          "name": "operator",
          "type": "address"
        }
      ],
      "name": "isApprovedForAll",
      "outputs": [
        {
          "internalType": "bool",
          "name": "",
          "type": "bool"
        }
      ],
      "stateMutability": "view",
      "type": "function"
    },
    {
      "inputs": [
        {
          "internalType": "address",
          "name": "_user",
          "type": "address"
        }
      ],
      "name": "isWhitelisted",
      "outputs": [
        {
          "internalType": "bool",
          "name": "",
          "type": "bool"
        }
      ],
      "stateMutability": "view",
      "type": "function"
    },
    {
      "inputs": [],
      "name": "maxMintAmountPerTx",
      "outputs": [
        {
          "internalType": "uint256",
          "name": "",
          "type": "uint256"
        }
      ],
      "stateMutability": "view",
      "type": "function"
    },
    {
      "inputs": [],
      "name": "maxSupply",
      "outputs": [
        {
          "internalType": "uint256",
          "name": "",
          "type": "uint256"
        }
      ],
      "stateMutability": "view",
      "type": "function"
    },
    {
      "inputs": [
        {
          "internalType": "uint256",
          "name": "_mintAmount",
          "type": "uint256"
        }
      ],
      "name": "mint",
      "outputs": [],
      "stateMutability": "payable",
      "type": "function"
    },
    {
      "inputs": [],
      "name": "name",
      "outputs": [
        {
          "internalType": "string",
          "name": "",
          "type": "string"
        }
      ],
      "stateMutability": "view",
      "type": "function"
    },
    {
      "inputs": [],
      "name": "nftPerAddressLimit",
      "outputs": [
        {
          "internalType": "uint256",
          "name": "",
          "type": "uint256"
        }
      ],
      "stateMutability": "view",
      "type": "function"
    },
    {
      "inputs": [],
      "name": "owner",
      "outputs": [
        {
          "internalType": "address",
          "name": "",
          "type": "address"
        }
      ],
      "stateMutability": "view",
      "type": "function"
    },
    {
      "inputs": [
        {
          "internalType": "uint256",
          "name": "tokenId",
          "type": "uint256"
        }
      ],
      "name": "ownerOf",
      "outputs": [
        {
          "internalType": "address",
          "name": "",
          "type": "address"
        }
      ],
      "stateMutability": "view",
      "type": "function"
    },
    {
      "inputs": [
        {
          "internalType": "bool",
          "name": "_state",
          "type": "bool"
        }
      ],
      "name": "pause",
      "outputs": [],
      "stateMutability": "nonpayable",
      "type": "function"
    },
    {
      "inputs": [],
      "name": "paused",
      "outputs": [
        {
          "internalType": "bool",
          "name": "",
          "type": "bool"
        }
      ],
      "stateMutability": "view",
      "type": "function"
    },
    {
      "inputs": [],
      "name": "renounceOwnership",
      "outputs": [],
      "stateMutability": "nonpayable",
      "type": "function"
    },
    {
      "inputs": [],
      "name": "reveal",
      "outputs": [],
      "stateMutability": "nonpayable",
      "type": "function"
    },
    {
      "inputs": [],
      "name": "revealed",
      "outputs": [
        {
          "internalType": "bool",
          "name": "",
          "type": "bool"
        }
      ],
      "stateMutability": "view",
      "type": "function"
    },
    {
      "inputs": [
        {
          "internalType": "address",
          "name": "from",
          "type": "address"
        },
        {
          "internalType": "address",
          "name": "to",
          "type": "address"
        },
        {
          "internalType": "uint256",
          "name": "tokenId",
          "type": "uint256"
        }
      ],
      "name": "safeTransferFrom",
      "outputs": [],
      "stateMutability": "nonpayable",
      "type": "function"
    },
    {
      "inputs": [
        {
          "internalType": "address",
          "name": "from",
          "type": "address"
        },
        {
          "internalType": "address",
          "name": "to",
          "type": "address"
        },
        {
          "internalType": "uint256",
          "name": "tokenId",
          "type": "uint256"
        },
        {
          "internalType": "bytes",
          "name": "_data",
          "type": "bytes"
        }
      ],
      "name": "safeTransferFrom",
      "outputs": [],
      "stateMutability": "nonpayable",
      "type": "function"
    },
    {
      "inputs": [
        {
          "internalType": "address",
          "name": "operator",
          "type": "address"
        },
        {
          "internalType": "bool",
          "name": "approved",
          "type": "bool"
        }
      ],
      "name": "setApprovalForAll",
      "outputs": [],
      "stateMutability": "nonpayable",
      "type": "function"
    },
    {
      "inputs": [
        {
          "internalType": "string",
          "name": "_newBaseExtension",
          "type": "string"
        }
      ],
      "name": "setBaseExtension",
      "outputs": [],
      "stateMutability": "nonpayable",
      "type": "function"
    },
    {
      "inputs": [
        {
          "internalType": "string",
          "name": "_newBaseURI",
          "type": "string"
        }
      ],
      "name": "setBaseURI",
      "outputs": [],
      "stateMutability": "nonpayable",
      "type": "function"
    },
    {
      "inputs": [
        {
          "internalType": "uint256",
          "name": "_newCost",
          "type": "uint256"
        }
      ],
      "name": "setCost",
      "outputs": [],
      "stateMutability": "nonpayable",
      "type": "function"
    },
    {
      "inputs": [
        {
          "internalType": "string",
          "name": "_hiddenMetadataUri",
          "type": "string"
        }
      ],
      "name": "setHiddenMetadataUri",
      "outputs": [],
      "stateMutability": "nonpayable",
      "type": "function"
    },
    {
      "inputs": [
        {
          "internalType": "uint256",
          "name": "_newmaxMintAmount",
          "type": "uint256"
        }
      ],
      "name": "setMaxMintAmountPerTx",
      "outputs": [],
      "stateMutability": "nonpayable",
      "type": "function"
    },
    {
      "inputs": [
        {
          "internalType": "uint256",
          "name": "_limit",
          "type": "uint256"
        }
      ],
      "name": "setNftPerAddressLimit",
      "outputs": [],
      "stateMutability": "nonpayable",
      "type": "function"
    },
    {
      "inputs": [
        {
          "internalType": "bool",
          "name": "_state",
          "type": "bool"
        }
      ],
      "name": "setWhitelistMintEnabled",
      "outputs": [],
      "stateMutability": "nonpayable",
      "type": "function"
    },
    {
      "inputs": [
        {
          "internalType": "uint256",
          "name": "_newCost",
          "type": "uint256"
        },
        {
          "internalType": "uint256",
          "name": "_newmaxMintAmount",
          "type": "uint256"
        }
      ],
      "name": "startPresale",
      "outputs": [],
      "stateMutability": "nonpayable",
      "type": "function"
    },
    {
      "inputs": [
        {
          "internalType": "uint256",
          "name": "_newCost",
          "type": "uint256"
        },
        {
          "internalType": "uint256",
          "name": "_newmaxMintAmount",
          "type": "uint256"
        }
      ],
      "name": "startPublicSale",
      "outputs": [],
      "stateMutability": "nonpayable",
      "type": "function"
    },
    {
      "inputs": [],
      "name": "startWhitelisting",
      "outputs": [],
      "stateMutability": "nonpayable",
      "type": "function"
    },
    {
      "inputs": [
        {
          "internalType": "bytes4",
          "name": "interfaceId",
          "type": "bytes4"
        }
      ],
      "name": "supportsInterface",
      "outputs": [
        {
          "internalType": "bool",
          "name": "",
          "type": "bool"
        }
      ],
      "stateMutability": "view",
      "type": "function"
    },
    {
      "inputs": [],
      "name": "symbol",
      "outputs": [
        {
          "internalType": "string",
          "name": "",
          "type": "string"
        }
      ],
      "stateMutability": "view",
      "type": "function"
    },
    {
      "inputs": [
        {
          "internalType": "uint256",
          "name": "index",
          "type": "uint256"
        }
      ],
      "name": "tokenByIndex",
      "outputs": [
        {
          "internalType": "uint256",
          "name": "",
          "type": "uint256"
        }
      ],
      "stateMutability": "view",
      "type": "function"
    },
    {
      "inputs": [
        {
          "internalType": "address",
          "name": "owner",
          "type": "address"
        },
        {
          "internalType": "uint256",
          "name": "index",
          "type": "uint256"
        }
      ],
      "name": "tokenOfOwnerByIndex",
      "outputs": [
        {
          "internalType": "uint256",
          "name": "",
          "type": "uint256"
        }
      ],
      "stateMutability": "view",
      "type": "function"
    },
    {
      "inputs": [
        {
          "internalType": "uint256",
          "name": "tokenId",
          "type": "uint256"
        }
      ],
      "name": "tokenURI",
      "outputs": [
        {
          "internalType": "string",
          "name": "",
          "type": "string"
        }
      ],
      "stateMutability": "view",
      "type": "function"
    },
    {
      "inputs": [],
      "name": "totalSupply",
      "outputs": [
        {
          "internalType": "uint256",
          "name": "",
          "type": "uint256"
        }
      ],
      "stateMutability": "view",
      "type": "function"
    },
    {
      "inputs": [
        {
          "internalType": "address",
          "name": "from",
          "type": "address"
        },
        {
          "internalType": "address",
          "name": "to",
          "type": "address"
        },
        {
          "internalType": "uint256",
          "name": "tokenId",
          "type": "uint256"
        }
      ],
      "name": "transferFrom",
      "outputs": [],
      "stateMutability": "nonpayable",
      "type": "function"
    },
    {
      "inputs": [
        {
          "internalType": "address",
          "name": "newOwner",
          "type": "address"
        }
      ],
      "name": "transferOwnership",
      "outputs": [],
      "stateMutability": "nonpayable",
      "type": "function"
    },
    {
      "inputs": [
        {
          "internalType": "address",
          "name": "_owner",
          "type": "address"
        }
      ],
      "name": "walletOfOwner",
      "outputs": [
        {
          "internalType": "uint256[]",
          "name": "",
          "type": "uint256[]"
        }
      ],
      "stateMutability": "view",
      "type": "function"
    },
    {
      "inputs": [],
      "name": "whitelistMintEnabled",
      "outputs": [
        {
          "internalType": "bool",
          "name": "",
          "type": "bool"
        }
      ],
      "stateMutability": "view",
      "type": "function"
    },
    {
      "inputs": [
        {
          "internalType": "address[]",
          "name": "_users",
          "type": "address[]"
        }
      ],
      "name": "whitelistUsers",
      "outputs": [],
      "stateMutability": "nonpayable",
      "type": "function"
    },
    {
      "inputs": [
        {
          "internalType": "uint256",
          "name": "",
          "type": "uint256"
        }
      ],
      "name": "whitelistedAddresses",
      "outputs": [
        {
          "internalType": "address",
          "name": "",
          "type": "address"
        }
      ],
      "stateMutability": "view",
      "type": "function"
    },
    {
      "inputs": [],
      "name": "withdraw",
      "outputs": [],
      "stateMutability": "payable",
      "type": "function"
    }
  ],
  "bytecode": "0x60806040526040518060400160405280600581526020017f2e6a736f6e000000000000000000000000000000000000000000000000000000815250600c90805190602001906200005192919062000509565b5060036011556001601260006101000a81548160ff0219169083151502179055506000601260016101000a81548160ff0219169083151502179055506000601260026101000a81548160ff021916908315150217905550348015620000b557600080fd5b5060405162005f6338038062005f638339818101604052810190620000db91906200064e565b86868160009080519060200190620000f592919062000509565b5080600190805190602001906200010e92919062000509565b50505062000131620001256200018960201b60201c565b6200019160201b60201c565b62000142856200025760201b60201c565b62000153816200030260201b60201c565b6200016484620003ad60201b60201c565b62000175826200044660201b60201c565b82600f8190555050505050505050620009a8565b600033905090565b6000600a60009054906101000a900473ffffffffffffffffffffffffffffffffffffffff16905081600a60006101000a81548173ffffffffffffffffffffffffffffffffffffffff021916908373ffffffffffffffffffffffffffffffffffffffff1602179055508173ffffffffffffffffffffffffffffffffffffffff168173ffffffffffffffffffffffffffffffffffffffff167f8be0079c531659141344cd1fd0a4f28419497f9722a3daafe3b4186f6b6457e060405160405180910390a35050565b620002676200018960201b60201c565b73ffffffffffffffffffffffffffffffffffffffff166200028d620004df60201b60201c565b73ffffffffffffffffffffffffffffffffffffffff1614620002e6576040517f08c379a0000000000000000000000000000000000000000000000000000000008152600401620002dd90620007a4565b60405180910390fd5b80600b9080519060200190620002fe92919062000509565b5050565b620003126200018960201b60201c565b73ffffffffffffffffffffffffffffffffffffffff1662000338620004df60201b60201c565b73ffffffffffffffffffffffffffffffffffffffff161462000391576040517f08c379a00000000000000000000000000000000000000000000000000000000081526004016200038890620007a4565b60405180910390fd5b80600d9080519060200190620003a992919062000509565b5050565b620003bd6200018960201b60201c565b73ffffffffffffffffffffffffffffffffffffffff16620003e3620004df60201b60201c565b73ffffffffffffffffffffffffffffffffffffffff16146200043c576040517f08c379a00000000000000000000000000000000000000000000000000000000081526004016200043390620007a4565b60405180910390fd5b80600e8190555050565b620004566200018960201b60201c565b73ffffffffffffffffffffffffffffffffffffffff166200047c620004df60201b60201c565b73ffffffffffffffffffffffffffffffffffffffff1614620004d5576040517f08c379a0000000000000000000000000000000000000000000000000000000008152600401620004cc90620007a4565b60405180910390fd5b8060108190555050565b6000600a60009054906101000a900473ffffffffffffffffffffffffffffffffffffffff16905090565b828054620005179062000876565b90600052602060002090601f0160209004810192826200053b576000855562000587565b82601f106200055657805160ff191683800117855562000587565b8280016001018555821562000587579182015b828111156200058657825182559160200191906001019062000569565b5b5090506200059691906200059a565b5090565b5b80821115620005b55760008160009055506001016200059b565b5090565b6000620005d0620005ca84620007ef565b620007c6565b905082815260208101848484011115620005ef57620005ee62000945565b5b620005fc84828562000840565b509392505050565b600082601f8301126200061c576200061b62000940565b5b81516200062e848260208601620005b9565b91505092915050565b60008151905062000648816200098e565b92915050565b600080600080600080600060e0888a03121562000670576200066f6200094f565b5b600088015167ffffffffffffffff8111156200069157620006906200094a565b5b6200069f8a828b0162000604565b975050602088015167ffffffffffffffff811115620006c357620006c26200094a565b5b620006d18a828b0162000604565b965050604088015167ffffffffffffffff811115620006f557620006f46200094a565b5b620007038a828b0162000604565b9550506060620007168a828b0162000637565b9450506080620007298a828b0162000637565b93505060a06200073c8a828b0162000637565b92505060c088015167ffffffffffffffff81111562000760576200075f6200094a565b5b6200076e8a828b0162000604565b91505092959891949750929550565b60006200078c60208362000825565b9150620007998262000965565b602082019050919050565b60006020820190508181036000830152620007bf816200077d565b9050919050565b6000620007d2620007e5565b9050620007e08282620008ac565b919050565b6000604051905090565b600067ffffffffffffffff8211156200080d576200080c62000911565b5b620008188262000954565b9050602081019050919050565b600082825260208201905092915050565b6000819050919050565b60005b838110156200086057808201518184015260208101905062000843565b8381111562000870576000848401525b50505050565b600060028204905060018216806200088f57607f821691505b60208210811415620008a657620008a5620008e2565b5b50919050565b620008b78262000954565b810181811067ffffffffffffffff82111715620008d957620008d862000911565b5b80604052505050565b7f4e487b7100000000000000000000000000000000000000000000000000000000600052602260045260246000fd5b7f4e487b7100000000000000000000000000000000000000000000000000000000600052604160045260246000fd5b600080fd5b600080fd5b600080fd5b600080fd5b6000601f19601f8301169050919050565b7f4f776e61626c653a2063616c6c6572206973206e6f7420746865206f776e6572600082015250565b620009998162000836565b8114620009a557600080fd5b50565b6155ab80620009b86000396000f3fe6080604052600436106102935760003560e01c806370a082311161015a578063b767a098116100c1578063d0eb26b01161007a578063d0eb26b0146109e6578063d5abeb0114610a0f578063da3ef23f14610a3a578063e985e9c514610a63578063edec5f2714610aa0578063f2fde38b14610ac957610293565b8063b767a098146108c4578063b88d4fde146108ed578063ba4e5c4914610916578063ba7d2c7614610953578063c66828621461097e578063c87b56dd146109a957610293565b806395d89b411161011357806395d89b41146107e9578063a0712d6814610814578063a22cb46514610830578063a45ba8e714610859578063a475b5dd14610884578063b071401b1461089b57610293565b806370a08231146106ff578063715018a61461073c578063716c6a6e146107535780637c4ecead1461076a5780638da5cb5b1461079357806394354fd0146107be57610293565b80633ccfd60b116101fe57806351830227116101b757806351830227146105ed57806355f804b3146106185780635c975abb146106415780636352211e1461066c5780636c0360eb146106a95780636caede3d146106d457610293565b80633ccfd60b146104ee57806342842e0e146104f8578063438b63001461052157806344a0d68a1461055e5780634f6ccce7146105875780634fdd43cb146105c457610293565b806318160ddd1161025057806318160ddd146103ba57806318cae269146103e557806323b872dd146104225780632f745c591461044b5780633a12e933146104885780633af32abf146104b157610293565b806301ffc9a71461029857806302329a29146102d557806306fdde03146102fe578063081812fc14610329578063095ea7b31461036657806313faede61461038f575b600080fd5b3480156102a457600080fd5b506102bf60048036038101906102ba9190613dca565b610af2565b6040516102cc9190614574565b60405180910390f35b3480156102e157600080fd5b506102fc60048036038101906102f79190613d9d565b610b6c565b005b34801561030a57600080fd5b50610313610c05565b604051610320919061458f565b60405180910390f35b34801561033557600080fd5b50610350600480360381019061034b9190613e6d565b610c97565b60405161035d91906144eb565b60405180910390f35b34801561037257600080fd5b5061038d60048036038101906103889190613d10565b610d1c565b005b34801561039b57600080fd5b506103a4610e34565b6040516103b19190614931565b60405180910390f35b3480156103c657600080fd5b506103cf610e3a565b6040516103dc9190614931565b60405180910390f35b3480156103f157600080fd5b5061040c60048036038101906104079190613b8d565b610e47565b6040516104199190614931565b60405180910390f35b34801561042e57600080fd5b5061044960048036038101906104449190613bfa565b610e5f565b005b34801561045757600080fd5b50610472600480360381019061046d9190613d10565b610ebf565b60405161047f9190614931565b60405180910390f35b34801561049457600080fd5b506104af60048036038101906104aa9190613e9a565b610f64565b005b3480156104bd57600080fd5b506104d860048036038101906104d39190613b8d565b611080565b6040516104e59190614574565b60405180910390f35b6104f6611132565b005b34801561050457600080fd5b5061051f600480360381019061051a9190613bfa565b61122e565b005b34801561052d57600080fd5b5061054860048036038101906105439190613b8d565b61124e565b6040516105559190614552565b60405180910390f35b34801561056a57600080fd5b5061058560048036038101906105809190613e6d565b6112fc565b005b34801561059357600080fd5b506105ae60048036038101906105a99190613e6d565b611382565b6040516105bb9190614931565b60405180910390f35b3480156105d057600080fd5b506105eb60048036038101906105e69190613e24565b6113f3565b005b3480156105f957600080fd5b50610602611489565b60405161060f9190614574565b60405180910390f35b34801561062457600080fd5b5061063f600480360381019061063a9190613e24565b61149c565b005b34801561064d57600080fd5b50610656611532565b6040516106639190614574565b60405180910390f35b34801561067857600080fd5b50610693600480360381019061068e9190613e6d565b611545565b6040516106a091906144eb565b60405180910390f35b3480156106b557600080fd5b506106be6115f7565b6040516106cb919061458f565b60405180910390f35b3480156106e057600080fd5b506106e9611685565b6040516106f69190614574565b60405180910390f35b34801561070b57600080fd5b5061072660048036038101906107219190613b8d565b611698565b6040516107339190614931565b60405180910390f35b34801561074857600080fd5b50610751611750565b005b34801561075f57600080fd5b506107686117d8565b005b34801561077657600080fd5b50610791600480360381019061078c9190613e9a565b6118d2565b005b34801561079f57600080fd5b506107a86119d6565b6040516107b591906144eb565b60405180910390f35b3480156107ca57600080fd5b506107d3611a00565b6040516107e09190614931565b60405180910390f35b3480156107f557600080fd5b506107fe611a06565b60405161080b919061458f565b60405180910390f35b61082e60048036038101906108299190613e6d565b611a98565b005b34801561083c57600080fd5b5061085760048036038101906108529190613cd0565b611de1565b005b34801561086557600080fd5b5061086e611df7565b60405161087b919061458f565b60405180910390f35b34801561089057600080fd5b50610899611e85565b005b3480156108a757600080fd5b506108c260048036038101906108bd9190613e6d565b611f1e565b005b3480156108d057600080fd5b506108eb60048036038101906108e69190613d9d565b611fa4565b005b3480156108f957600080fd5b50610914600480360381019061090f9190613c4d565b61203d565b005b34801561092257600080fd5b5061093d60048036038101906109389190613e6d565b61209f565b60405161094a91906144eb565b60405180910390f35b34801561095f57600080fd5b506109686120de565b6040516109759190614931565b60405180910390f35b34801561098a57600080fd5b506109936120e4565b6040516109a0919061458f565b60405180910390f35b3480156109b557600080fd5b506109d060048036038101906109cb9190613e6d565b612172565b6040516109dd919061458f565b60405180910390f35b3480156109f257600080fd5b50610a0d6004803603810190610a089190613e6d565b6122cb565b005b348015610a1b57600080fd5b50610a24612351565b604051610a319190614931565b60405180910390f35b348015610a4657600080fd5b50610a616004803603810190610a5c9190613e24565b612357565b005b348015610a6f57600080fd5b50610a8a6004803603810190610a859190613bba565b6123ed565b604051610a979190614574565b60405180910390f35b348015610aac57600080fd5b50610ac76004803603810190610ac29190613d50565b612481565b005b348015610ad557600080fd5b50610af06004803603810190610aeb9190613b8d565b612521565b005b60007f780e9d63000000000000000000000000000000000000000000000000000000007bffffffffffffffffffffffffffffffffffffffffffffffffffffffff1916827bffffffffffffffffffffffffffffffffffffffffffffffffffffffff19161480610b655750610b6482612619565b5b9050919050565b610b746126fb565b73ffffffffffffffffffffffffffffffffffffffff16610b926119d6565b73ffffffffffffffffffffffffffffffffffffffff1614610be8576040517f08c379a0000000000000000000000000000000000000000000000000000000008152600401610bdf906147f1565b60405180910390fd5b80601260006101000a81548160ff02191690831515021790555050565b606060008054610c1490614c3a565b80601f0160208091040260200160405190810160405280929190818152602001828054610c4090614c3a565b8015610c8d5780601f10610c6257610100808354040283529160200191610c8d565b820191906000526020600020905b815481529060010190602001808311610c7057829003601f168201915b5050505050905090565b6000610ca282612703565b610ce1576040517f08c379a0000000000000000000000000000000000000000000000000000000008152600401610cd8906147d1565b60405180910390fd5b6004600083815260200190815260200160002060009054906101000a900473ffffffffffffffffffffffffffffffffffffffff169050919050565b6000610d2782611545565b90508073ffffffffffffffffffffffffffffffffffffffff168373ffffffffffffffffffffffffffffffffffffffff161415610d98576040517f08c379a0000000000000000000000000000000000000000000000000000000008152600401610d8f90614851565b60405180910390fd5b8073ffffffffffffffffffffffffffffffffffffffff16610db76126fb565b73ffffffffffffffffffffffffffffffffffffffff161480610de65750610de581610de06126fb565b6123ed565b5b610e25576040517f08c379a0000000000000000000000000000000000000000000000000000000008152600401610e1c90614711565b60405180910390fd5b610e2f838361276f565b505050565b600e5481565b6000600880549050905090565b60146020528060005260406000206000915090505481565b610e70610e6a6126fb565b82612828565b610eaf576040517f08c379a0000000000000000000000000000000000000000000000000000000008152600401610ea690614891565b60405180910390fd5b610eba838383612906565b505050565b6000610eca83611698565b8210610f0b576040517f08c379a0000000000000000000000000000000000000000000000000000000008152600401610f02906145d1565b60405180910390fd5b600660008473ffffffffffffffffffffffffffffffffffffffff1673ffffffffffffffffffffffffffffffffffffffff168152602001908152602001600020600083815260200190815260200160002054905092915050565b610f6c6126fb565b73ffffffffffffffffffffffffffffffffffffffff16610f8a6119d6565b73ffffffffffffffffffffffffffffffffffffffff1614610fe0576040517f08c379a0000000000000000000000000000000000000000000000000000000008152600401610fd7906147f1565b60405180910390fd5b601260009054906101000a900460ff1615801561100a5750601260029054906101000a900460ff16155b80156110235750601260019054906101000a900460ff16155b611062576040517f08c379a000000000000000000000000000000000000000000000000000000000815260040161105990614651565b60405180910390fd5b61106a611e85565b611073826112fc565b61107c81611f1e565b5050565b600080601380549050905060005b81811015611126578373ffffffffffffffffffffffffffffffffffffffff16601382815481106110c1576110c0614dd3565b5b9060005260206000200160009054906101000a900473ffffffffffffffffffffffffffffffffffffffff1673ffffffffffffffffffffffffffffffffffffffff1614156111135760019250505061112d565b808061111e90614c9d565b91505061108e565b5060009150505b919050565b61113a6126fb565b73ffffffffffffffffffffffffffffffffffffffff166111586119d6565b73ffffffffffffffffffffffffffffffffffffffff16146111ae576040517f08c379a00000000000000000000000000000000000000000000000000000000081526004016111a5906147f1565b60405180910390fd5b60006111b86119d6565b73ffffffffffffffffffffffffffffffffffffffff16476040516111db906144d6565b60006040518083038185875af1925050503d8060008114611218576040519150601f19603f3d011682016040523d82523d6000602084013e61121d565b606091505b505090508061122b57600080fd5b50565b6112498383836040518060200160405280600081525061203d565b505050565b6060600061125b83611698565b905060008167ffffffffffffffff81111561127957611278614e02565b5b6040519080825280602002602001820160405280156112a75781602001602082028036833780820191505090505b50905060005b828110156112f1576112bf8582610ebf565b8282815181106112d2576112d1614dd3565b5b60200260200101818152505080806112e990614c9d565b9150506112ad565b508092505050919050565b6113046126fb565b73ffffffffffffffffffffffffffffffffffffffff166113226119d6565b73ffffffffffffffffffffffffffffffffffffffff1614611378576040517f08c379a000000000000000000000000000000000000000000000000000000000815260040161136f906147f1565b60405180910390fd5b80600e8190555050565b600061138c610e3a565b82106113cd576040517f08c379a00000000000000000000000000000000000000000000000000000000081526004016113c4906148b1565b60405180910390fd5b600882815481106113e1576113e0614dd3565b5b90600052602060002001549050919050565b6113fb6126fb565b73ffffffffffffffffffffffffffffffffffffffff166114196119d6565b73ffffffffffffffffffffffffffffffffffffffff161461146f576040517f08c379a0000000000000000000000000000000000000000000000000000000008152600401611466906147f1565b60405180910390fd5b80600d908051906020019061148592919061388a565b5050565b601260019054906101000a900460ff1681565b6114a46126fb565b73ffffffffffffffffffffffffffffffffffffffff166114c26119d6565b73ffffffffffffffffffffffffffffffffffffffff1614611518576040517f08c379a000000000000000000000000000000000000000000000000000000000815260040161150f906147f1565b60405180910390fd5b80600b908051906020019061152e92919061388a565b5050565b601260009054906101000a900460ff1681565b6000806002600084815260200190815260200160002060009054906101000a900473ffffffffffffffffffffffffffffffffffffffff169050600073ffffffffffffffffffffffffffffffffffffffff168173ffffffffffffffffffffffffffffffffffffffff1614156115ee576040517f08c379a00000000000000000000000000000000000000000000000000000000081526004016115e590614751565b60405180910390fd5b80915050919050565b600b805461160490614c3a565b80601f016020809104026020016040519081016040528092919081815260200182805461163090614c3a565b801561167d5780601f106116525761010080835404028352916020019161167d565b820191906000526020600020905b81548152906001019060200180831161166057829003601f168201915b505050505081565b601260029054906101000a900460ff1681565b60008073ffffffffffffffffffffffffffffffffffffffff168273ffffffffffffffffffffffffffffffffffffffff161415611709576040517f08c379a000000000000000000000000000000000000000000000000000000000815260040161170090614731565b60405180910390fd5b600360008373ffffffffffffffffffffffffffffffffffffffff1673ffffffffffffffffffffffffffffffffffffffff168152602001908152602001600020549050919050565b6117586126fb565b73ffffffffffffffffffffffffffffffffffffffff166117766119d6565b73ffffffffffffffffffffffffffffffffffffffff16146117cc576040517f08c379a00000000000000000000000000000000000000000000000000000000081526004016117c3906147f1565b60405180910390fd5b6117d66000612b6d565b565b6117e06126fb565b73ffffffffffffffffffffffffffffffffffffffff166117fe6119d6565b73ffffffffffffffffffffffffffffffffffffffff1614611854576040517f08c379a000000000000000000000000000000000000000000000000000000000815260040161184b906147f1565b60405180910390fd5b601260009054906101000a900460ff16801561187d5750601260029054906101000a900460ff16155b6118bc576040517f08c379a00000000000000000000000000000000000000000000000000000000081526004016118b390614911565b60405180910390fd5b6118c66000610b6c565b6118d06001611fa4565b565b6118da6126fb565b73ffffffffffffffffffffffffffffffffffffffff166118f86119d6565b73ffffffffffffffffffffffffffffffffffffffff161461194e576040517f08c379a0000000000000000000000000000000000000000000000000000000008152600401611945906147f1565b60405180910390fd5b601260009054906101000a900460ff161580156119775750601260029054906101000a900460ff165b6119b6576040517f08c379a00000000000000000000000000000000000000000000000000000000081526004016119ad906145b1565b60405180910390fd5b6119c06000611fa4565b6119c9826112fc565b6119d281611f1e565b5050565b6000600a60009054906101000a900473ffffffffffffffffffffffffffffffffffffffff16905090565b60105481565b606060018054611a1590614c3a565b80601f0160208091040260200160405190810160405280929190818152602001828054611a4190614c3a565b8015611a8e5780601f10611a6357610100808354040283529160200191611a8e565b820191906000526020600020905b815481529060010190602001808311611a7157829003601f168201915b5050505050905090565b601260009054906101000a900460ff1615611ae8576040517f08c379a0000000000000000000000000000000000000000000000000000000008152600401611adf90614811565b60405180910390fd5b6000611af2610e3a565b905060008211611b37576040517f08c379a0000000000000000000000000000000000000000000000000000000008152600401611b2e906148f1565b60405180910390fd5b601054821115611b7c576040517f08c379a0000000000000000000000000000000000000000000000000000000008152600401611b7390614791565b60405180910390fd5b600f548282611b8b9190614a6f565b1115611bcc576040517f08c379a0000000000000000000000000000000000000000000000000000000008152600401611bc390614771565b60405180910390fd5b611bd46119d6565b73ffffffffffffffffffffffffffffffffffffffff163373ffffffffffffffffffffffffffffffffffffffff1614611d515760011515601260029054906101000a900460ff1615151415611d0057611c2b33611080565b611c6a576040517f08c379a0000000000000000000000000000000000000000000000000000000008152600401611c61906148d1565b60405180910390fd5b6000601460003373ffffffffffffffffffffffffffffffffffffffff1673ffffffffffffffffffffffffffffffffffffffff1681526020019081526020016000205490506011548382611cbd9190614a6f565b1115611cfe576040517f08c379a0000000000000000000000000000000000000000000000000000000008152600401611cf590614691565b60405180910390fd5b505b81600e54611d0e9190614af6565b341015611d50576040517f08c379a0000000000000000000000000000000000000000000000000000000008152600401611d4790614871565b60405180910390fd5b5b6000600190505b828111611ddc57601460003373ffffffffffffffffffffffffffffffffffffffff1673ffffffffffffffffffffffffffffffffffffffff1681526020019081526020016000206000815480929190611daf90614c9d565b9190505550611dc9338284611dc49190614a6f565b612c33565b8080611dd490614c9d565b915050611d58565b505050565b611df3611dec6126fb565b8383612c51565b5050565b600d8054611e0490614c3a565b80601f0160208091040260200160405190810160405280929190818152602001828054611e3090614c3a565b8015611e7d5780601f10611e5257610100808354040283529160200191611e7d565b820191906000526020600020905b815481529060010190602001808311611e6057829003601f168201915b505050505081565b611e8d6126fb565b73ffffffffffffffffffffffffffffffffffffffff16611eab6119d6565b73ffffffffffffffffffffffffffffffffffffffff1614611f01576040517f08c379a0000000000000000000000000000000000000000000000000000000008152600401611ef8906147f1565b60405180910390fd5b6001601260016101000a81548160ff021916908315150217905550565b611f266126fb565b73ffffffffffffffffffffffffffffffffffffffff16611f446119d6565b73ffffffffffffffffffffffffffffffffffffffff1614611f9a576040517f08c379a0000000000000000000000000000000000000000000000000000000008152600401611f91906147f1565b60405180910390fd5b8060108190555050565b611fac6126fb565b73ffffffffffffffffffffffffffffffffffffffff16611fca6119d6565b73ffffffffffffffffffffffffffffffffffffffff1614612020576040517f08c379a0000000000000000000000000000000000000000000000000000000008152600401612017906147f1565b60405180910390fd5b80601260026101000a81548160ff02191690831515021790555050565b61204e6120486126fb565b83612828565b61208d576040517f08c379a000000000000000000000000000000000000000000000000000000000815260040161208490614891565b60405180910390fd5b61209984848484612dbe565b50505050565b601381815481106120af57600080fd5b906000526020600020016000915054906101000a900473ffffffffffffffffffffffffffffffffffffffff1681565b60115481565b600c80546120f190614c3a565b80601f016020809104026020016040519081016040528092919081815260200182805461211d90614c3a565b801561216a5780601f1061213f5761010080835404028352916020019161216a565b820191906000526020600020905b81548152906001019060200180831161214d57829003601f168201915b505050505081565b606061217d82612703565b6121bc576040517f08c379a00000000000000000000000000000000000000000000000000000000081526004016121b390614831565b60405180910390fd5b60001515601260019054906101000a900460ff161515141561226a57600d80546121e590614c3a565b80601f016020809104026020016040519081016040528092919081815260200182805461221190614c3a565b801561225e5780601f106122335761010080835404028352916020019161225e565b820191906000526020600020905b81548152906001019060200180831161224157829003601f168201915b505050505090506122c6565b6000612274612e1a565b9050600081511161229457604051806020016040528060008152506122c2565b8061229e84612eac565b600c6040516020016122b2939291906144a5565b6040516020818303038152906040525b9150505b919050565b6122d36126fb565b73ffffffffffffffffffffffffffffffffffffffff166122f16119d6565b73ffffffffffffffffffffffffffffffffffffffff1614612347576040517f08c379a000000000000000000000000000000000000000000000000000000000815260040161233e906147f1565b60405180910390fd5b8060118190555050565b600f5481565b61235f6126fb565b73ffffffffffffffffffffffffffffffffffffffff1661237d6119d6565b73ffffffffffffffffffffffffffffffffffffffff16146123d3576040517f08c379a00000000000000000000000000000000000000000000000000000000081526004016123ca906147f1565b60405180910390fd5b80600c90805190602001906123e992919061388a565b5050565b6000600560008473ffffffffffffffffffffffffffffffffffffffff1673ffffffffffffffffffffffffffffffffffffffff16815260200190815260200160002060008373ffffffffffffffffffffffffffffffffffffffff1673ffffffffffffffffffffffffffffffffffffffff16815260200190815260200160002060009054906101000a900460ff16905092915050565b6124896126fb565b73ffffffffffffffffffffffffffffffffffffffff166124a76119d6565b73ffffffffffffffffffffffffffffffffffffffff16146124fd576040517f08c379a00000000000000000000000000000000000000000000000000000000081526004016124f4906147f1565b60405180910390fd5b6013600061250b9190613910565b81816013919061251c929190613931565b505050565b6125296126fb565b73ffffffffffffffffffffffffffffffffffffffff166125476119d6565b73ffffffffffffffffffffffffffffffffffffffff161461259d576040517f08c379a0000000000000000000000000000000000000000000000000000000008152600401612594906147f1565b60405180910390fd5b600073ffffffffffffffffffffffffffffffffffffffff168173ffffffffffffffffffffffffffffffffffffffff16141561260d576040517f08c379a000000000000000000000000000000000000000000000000000000000815260040161260490614611565b60405180910390fd5b61261681612b6d565b50565b60007f80ac58cd000000000000000000000000000000000000000000000000000000007bffffffffffffffffffffffffffffffffffffffffffffffffffffffff1916827bffffffffffffffffffffffffffffffffffffffffffffffffffffffff191614806126e457507f5b5e139f000000000000000000000000000000000000000000000000000000007bffffffffffffffffffffffffffffffffffffffffffffffffffffffff1916827bffffffffffffffffffffffffffffffffffffffffffffffffffffffff1916145b806126f457506126f38261300d565b5b9050919050565b600033905090565b60008073ffffffffffffffffffffffffffffffffffffffff166002600084815260200190815260200160002060009054906101000a900473ffffffffffffffffffffffffffffffffffffffff1673ffffffffffffffffffffffffffffffffffffffff1614159050919050565b816004600083815260200190815260200160002060006101000a81548173ffffffffffffffffffffffffffffffffffffffff021916908373ffffffffffffffffffffffffffffffffffffffff160217905550808273ffffffffffffffffffffffffffffffffffffffff166127e283611545565b73ffffffffffffffffffffffffffffffffffffffff167f8c5be1e5ebec7d5bd14f71427d1e84f3dd0314c0f7b2291e5b200ac8c7c3b92560405160405180910390a45050565b600061283382612703565b612872576040517f08c379a0000000000000000000000000000000000000000000000000000000008152600401612869906146f1565b60405180910390fd5b600061287d83611545565b90508073ffffffffffffffffffffffffffffffffffffffff168473ffffffffffffffffffffffffffffffffffffffff1614806128bf57506128be81856123ed565b5b806128fd57508373ffffffffffffffffffffffffffffffffffffffff166128e584610c97565b73ffffffffffffffffffffffffffffffffffffffff16145b91505092915050565b8273ffffffffffffffffffffffffffffffffffffffff1661292682611545565b73ffffffffffffffffffffffffffffffffffffffff161461297c576040517f08c379a000000000000000000000000000000000000000000000000000000000815260040161297390614631565b60405180910390fd5b600073ffffffffffffffffffffffffffffffffffffffff168273ffffffffffffffffffffffffffffffffffffffff1614156129ec576040517f08c379a00000000000000000000000000000000000000000000000000000000081526004016129e3906146b1565b60405180910390fd5b6129f7838383613077565b612a0260008261276f565b6001600360008573ffffffffffffffffffffffffffffffffffffffff1673ffffffffffffffffffffffffffffffffffffffff1681526020019081526020016000206000828254612a529190614b50565b925050819055506001600360008473ffffffffffffffffffffffffffffffffffffffff1673ffffffffffffffffffffffffffffffffffffffff1681526020019081526020016000206000828254612aa99190614a6f565b92505081905550816002600083815260200190815260200160002060006101000a81548173ffffffffffffffffffffffffffffffffffffffff021916908373ffffffffffffffffffffffffffffffffffffffff160217905550808273ffffffffffffffffffffffffffffffffffffffff168473ffffffffffffffffffffffffffffffffffffffff167fddf252ad1be2c89b69c2b068fc378daa952ba7f163c4a11628f55a4df523b3ef60405160405180910390a4612b6883838361318b565b505050565b6000600a60009054906101000a900473ffffffffffffffffffffffffffffffffffffffff16905081600a60006101000a81548173ffffffffffffffffffffffffffffffffffffffff021916908373ffffffffffffffffffffffffffffffffffffffff1602179055508173ffffffffffffffffffffffffffffffffffffffff168173ffffffffffffffffffffffffffffffffffffffff167f8be0079c531659141344cd1fd0a4f28419497f9722a3daafe3b4186f6b6457e060405160405180910390a35050565b612c4d828260405180602001604052806000815250613190565b5050565b8173ffffffffffffffffffffffffffffffffffffffff168373ffffffffffffffffffffffffffffffffffffffff161415612cc0576040517f08c379a0000000000000000000000000000000000000000000000000000000008152600401612cb7906146d1565b60405180910390fd5b80600560008573ffffffffffffffffffffffffffffffffffffffff1673ffffffffffffffffffffffffffffffffffffffff16815260200190815260200160002060008473ffffffffffffffffffffffffffffffffffffffff1673ffffffffffffffffffffffffffffffffffffffff16815260200190815260200160002060006101000a81548160ff0219169083151502179055508173ffffffffffffffffffffffffffffffffffffffff168373ffffffffffffffffffffffffffffffffffffffff167f17307eab39ab6107e8899845ad3d59bd9653f200f220920489ca2b5937696c3183604051612db19190614574565b60405180910390a3505050565b612dc9848484612906565b612dd5848484846131eb565b612e14576040517f08c379a0000000000000000000000000000000000000000000000000000000008152600401612e0b906145f1565b60405180910390fd5b50505050565b6060600b8054612e2990614c3a565b80601f0160208091040260200160405190810160405280929190818152602001828054612e5590614c3a565b8015612ea25780601f10612e7757610100808354040283529160200191612ea2565b820191906000526020600020905b815481529060010190602001808311612e8557829003601f168201915b5050505050905090565b60606000821415612ef4576040518060400160405280600181526020017f30000000000000000000000000000000000000000000000000000000000000008152509050613008565b600082905060005b60008214612f26578080612f0f90614c9d565b915050600a82612f1f9190614ac5565b9150612efc565b60008167ffffffffffffffff811115612f4257612f41614e02565b5b6040519080825280601f01601f191660200182016040528015612f745781602001600182028036833780820191505090505b5090505b6000851461300157600182612f8d9190614b50565b9150600a85612f9c9190614ce6565b6030612fa89190614a6f565b60f81b818381518110612fbe57612fbd614dd3565b5b60200101907effffffffffffffffffffffffffffffffffffffffffffffffffffffffffffff1916908160001a905350600a85612ffa9190614ac5565b9450612f78565b8093505050505b919050565b60007f01ffc9a7000000000000000000000000000000000000000000000000000000007bffffffffffffffffffffffffffffffffffffffffffffffffffffffff1916827bffffffffffffffffffffffffffffffffffffffffffffffffffffffff1916149050919050565b613082838383613382565b600073ffffffffffffffffffffffffffffffffffffffff168373ffffffffffffffffffffffffffffffffffffffff1614156130c5576130c081613387565b613104565b8173ffffffffffffffffffffffffffffffffffffffff168373ffffffffffffffffffffffffffffffffffffffff16146131035761310283826133d0565b5b5b600073ffffffffffffffffffffffffffffffffffffffff168273ffffffffffffffffffffffffffffffffffffffff161415613147576131428161353d565b613186565b8273ffffffffffffffffffffffffffffffffffffffff168273ffffffffffffffffffffffffffffffffffffffff161461318557613184828261360e565b5b5b505050565b505050565b61319a838361368d565b6131a760008484846131eb565b6131e6576040517f08c379a00000000000000000000000000000000000000000000000000000000081526004016131dd906145f1565b60405180910390fd5b505050565b600061320c8473ffffffffffffffffffffffffffffffffffffffff16613867565b15613375578373ffffffffffffffffffffffffffffffffffffffff1663150b7a026132356126fb565b8786866040518563ffffffff1660e01b81526004016132579493929190614506565b602060405180830381600087803b15801561327157600080fd5b505af19250505080156132a257506040513d601f19601f8201168201806040525081019061329f9190613df7565b60015b613325573d80600081146132d2576040519150601f19603f3d011682016040523d82523d6000602084013e6132d7565b606091505b5060008151141561331d576040517f08c379a0000000000000000000000000000000000000000000000000000000008152600401613314906145f1565b60405180910390fd5b805181602001fd5b63150b7a0260e01b7bffffffffffffffffffffffffffffffffffffffffffffffffffffffff1916817bffffffffffffffffffffffffffffffffffffffffffffffffffffffff19161491505061337a565b600190505b949350505050565b505050565b6008805490506009600083815260200190815260200160002081905550600881908060018154018082558091505060019003906000526020600020016000909190919091505550565b600060016133dd84611698565b6133e79190614b50565b90506000600760008481526020019081526020016000205490508181146134cc576000600660008673ffffffffffffffffffffffffffffffffffffffff1673ffffffffffffffffffffffffffffffffffffffff168152602001908152602001600020600084815260200190815260200160002054905080600660008773ffffffffffffffffffffffffffffffffffffffff1673ffffffffffffffffffffffffffffffffffffffff168152602001908152602001600020600084815260200190815260200160002081905550816007600083815260200190815260200160002081905550505b6007600084815260200190815260200160002060009055600660008573ffffffffffffffffffffffffffffffffffffffff1673ffffffffffffffffffffffffffffffffffffffff16815260200190815260200160002060008381526020019081526020016000206000905550505050565b600060016008805490506135519190614b50565b905060006009600084815260200190815260200160002054905060006008838154811061358157613580614dd3565b5b9060005260206000200154905080600883815481106135a3576135a2614dd3565b5b9060005260206000200181905550816009600083815260200190815260200160002081905550600960008581526020019081526020016000206000905560088054806135f2576135f1614da4565b5b6001900381819060005260206000200160009055905550505050565b600061361983611698565b905081600660008573ffffffffffffffffffffffffffffffffffffffff1673ffffffffffffffffffffffffffffffffffffffff168152602001908152602001600020600083815260200190815260200160002081905550806007600084815260200190815260200160002081905550505050565b600073ffffffffffffffffffffffffffffffffffffffff168273ffffffffffffffffffffffffffffffffffffffff1614156136fd576040517f08c379a00000000000000000000000000000000000000000000000000000000081526004016136f4906147b1565b60405180910390fd5b61370681612703565b15613746576040517f08c379a000000000000000000000000000000000000000000000000000000000815260040161373d90614671565b60405180910390fd5b61375260008383613077565b6001600360008473ffffffffffffffffffffffffffffffffffffffff1673ffffffffffffffffffffffffffffffffffffffff16815260200190815260200160002060008282546137a29190614a6f565b92505081905550816002600083815260200190815260200160002060006101000a81548173ffffffffffffffffffffffffffffffffffffffff021916908373ffffffffffffffffffffffffffffffffffffffff160217905550808273ffffffffffffffffffffffffffffffffffffffff16600073ffffffffffffffffffffffffffffffffffffffff167fddf252ad1be2c89b69c2b068fc378daa952ba7f163c4a11628f55a4df523b3ef60405160405180910390a46138636000838361318b565b5050565b6000808273ffffffffffffffffffffffffffffffffffffffff163b119050919050565b82805461389690614c3a565b90600052602060002090601f0160209004810192826138b857600085556138ff565b82601f106138d157805160ff19168380011785556138ff565b828001600101855582156138ff579182015b828111156138fe5782518255916020019190600101906138e3565b5b50905061390c91906139d1565b5090565b508054600082559060005260206000209081019061392e91906139d1565b50565b8280548282559060005260206000209081019282156139c0579160200282015b828111156139bf57823573ffffffffffffffffffffffffffffffffffffffff168260006101000a81548173ffffffffffffffffffffffffffffffffffffffff021916908373ffffffffffffffffffffffffffffffffffffffff16021790555091602001919060010190613951565b5b5090506139cd91906139d1565b5090565b5b808211156139ea5760008160009055506001016139d2565b5090565b6000613a016139fc84614971565b61494c565b905082815260208101848484011115613a1d57613a1c614e40565b5b613a28848285614bf8565b509392505050565b6000613a43613a3e846149a2565b61494c565b905082815260208101848484011115613a5f57613a5e614e40565b5b613a6a848285614bf8565b509392505050565b600081359050613a8181615519565b92915050565b60008083601f840112613a9d57613a9c614e36565b5b8235905067ffffffffffffffff811115613aba57613ab9614e31565b5b602083019150836020820283011115613ad657613ad5614e3b565b5b9250929050565b600081359050613aec81615530565b92915050565b600081359050613b0181615547565b92915050565b600081519050613b1681615547565b92915050565b600082601f830112613b3157613b30614e36565b5b8135613b418482602086016139ee565b91505092915050565b600082601f830112613b5f57613b5e614e36565b5b8135613b6f848260208601613a30565b91505092915050565b600081359050613b878161555e565b92915050565b600060208284031215613ba357613ba2614e4a565b5b6000613bb184828501613a72565b91505092915050565b60008060408385031215613bd157613bd0614e4a565b5b6000613bdf85828601613a72565b9250506020613bf085828601613a72565b9150509250929050565b600080600060608486031215613c1357613c12614e4a565b5b6000613c2186828701613a72565b9350506020613c3286828701613a72565b9250506040613c4386828701613b78565b9150509250925092565b60008060008060808587031215613c6757613c66614e4a565b5b6000613c7587828801613a72565b9450506020613c8687828801613a72565b9350506040613c9787828801613b78565b925050606085013567ffffffffffffffff811115613cb857613cb7614e45565b5b613cc487828801613b1c565b91505092959194509250565b60008060408385031215613ce757613ce6614e4a565b5b6000613cf585828601613a72565b9250506020613d0685828601613add565b9150509250929050565b60008060408385031215613d2757613d26614e4a565b5b6000613d3585828601613a72565b9250506020613d4685828601613b78565b9150509250929050565b60008060208385031215613d6757613d66614e4a565b5b600083013567ffffffffffffffff811115613d8557613d84614e45565b5b613d9185828601613a87565b92509250509250929050565b600060208284031215613db357613db2614e4a565b5b6000613dc184828501613add565b91505092915050565b600060208284031215613de057613ddf614e4a565b5b6000613dee84828501613af2565b91505092915050565b600060208284031215613e0d57613e0c614e4a565b5b6000613e1b84828501613b07565b91505092915050565b600060208284031215613e3a57613e39614e4a565b5b600082013567ffffffffffffffff811115613e5857613e57614e45565b5b613e6484828501613b4a565b91505092915050565b600060208284031215613e8357613e82614e4a565b5b6000613e9184828501613b78565b91505092915050565b60008060408385031215613eb157613eb0614e4a565b5b6000613ebf85828601613b78565b9250506020613ed085828601613b78565b9150509250929050565b6000613ee68383614487565b60208301905092915050565b613efb81614b84565b82525050565b6000613f0c826149f8565b613f168185614a26565b9350613f21836149d3565b8060005b83811015613f52578151613f398882613eda565b9750613f4483614a19565b925050600181019050613f25565b5085935050505092915050565b613f6881614b96565b82525050565b6000613f7982614a03565b613f838185614a37565b9350613f93818560208601614c07565b613f9c81614e4f565b840191505092915050565b6000613fb282614a0e565b613fbc8185614a53565b9350613fcc818560208601614c07565b613fd581614e4f565b840191505092915050565b6000613feb82614a0e565b613ff58185614a64565b9350614005818560208601614c07565b80840191505092915050565b6000815461401e81614c3a565b6140288186614a64565b94506001821660008114614043576001811461405457614087565b60ff19831686528186019350614087565b61405d856149e3565b60005b8381101561407f57815481890152600182019150602081019050614060565b838801955050505b50505092915050565b600061409d601283614a53565b91506140a882614e60565b602082019050919050565b60006140c0602b83614a53565b91506140cb82614e89565b604082019050919050565b60006140e3603283614a53565b91506140ee82614ed8565b604082019050919050565b6000614106602683614a53565b915061411182614f27565b604082019050919050565b6000614129602583614a53565b915061413482614f76565b604082019050919050565b600061414c601683614a53565b915061415782614fc5565b602082019050919050565b600061416f601c83614a53565b915061417a82614fee565b602082019050919050565b6000614192601c83614a53565b915061419d82615017565b602082019050919050565b60006141b5602483614a53565b91506141c082615040565b604082019050919050565b60006141d8601983614a53565b91506141e38261508f565b602082019050919050565b60006141fb602c83614a53565b9150614206826150b8565b604082019050919050565b600061421e603883614a53565b915061422982615107565b604082019050919050565b6000614241602a83614a53565b915061424c82615156565b604082019050919050565b6000614264602983614a53565b915061426f826151a5565b604082019050919050565b6000614287601683614a53565b9150614292826151f4565b602082019050919050565b60006142aa602483614a53565b91506142b58261521d565b604082019050919050565b60006142cd602083614a53565b91506142d88261526c565b602082019050919050565b60006142f0602c83614a53565b91506142fb82615295565b604082019050919050565b6000614313602083614a53565b915061431e826152e4565b602082019050919050565b6000614336601683614a53565b91506143418261530d565b602082019050919050565b6000614359602f83614a53565b915061436482615336565b604082019050919050565b600061437c602183614a53565b915061438782615385565b604082019050919050565b600061439f600083614a48565b91506143aa826153d4565b600082019050919050565b60006143c2601283614a53565b91506143cd826153d7565b602082019050919050565b60006143e5603183614a53565b91506143f082615400565b604082019050919050565b6000614408602c83614a53565b91506144138261544f565b604082019050919050565b600061442b601783614a53565b91506144368261549e565b602082019050919050565b600061444e601b83614a53565b9150614459826154c7565b602082019050919050565b6000614471601783614a53565b915061447c826154f0565b602082019050919050565b61449081614bee565b82525050565b61449f81614bee565b82525050565b60006144b18286613fe0565b91506144bd8285613fe0565b91506144c98284614011565b9150819050949350505050565b60006144e182614392565b9150819050919050565b60006020820190506145006000830184613ef2565b92915050565b600060808201905061451b6000830187613ef2565b6145286020830186613ef2565b6145356040830185614496565b81810360608301526145478184613f6e565b905095945050505050565b6000602082019050818103600083015261456c8184613f01565b905092915050565b60006020820190506145896000830184613f5f565b92915050565b600060208201905081810360008301526145a98184613fa7565b905092915050565b600060208201905081810360008301526145ca81614090565b9050919050565b600060208201905081810360008301526145ea816140b3565b9050919050565b6000602082019050818103600083015261460a816140d6565b9050919050565b6000602082019050818103600083015261462a816140f9565b9050919050565b6000602082019050818103600083015261464a8161411c565b9050919050565b6000602082019050818103600083015261466a8161413f565b9050919050565b6000602082019050818103600083015261468a81614162565b9050919050565b600060208201905081810360008301526146aa81614185565b9050919050565b600060208201905081810360008301526146ca816141a8565b9050919050565b600060208201905081810360008301526146ea816141cb565b9050919050565b6000602082019050818103600083015261470a816141ee565b9050919050565b6000602082019050818103600083015261472a81614211565b9050919050565b6000602082019050818103600083015261474a81614234565b9050919050565b6000602082019050818103600083015261476a81614257565b9050919050565b6000602082019050818103600083015261478a8161427a565b9050919050565b600060208201905081810360008301526147aa8161429d565b9050919050565b600060208201905081810360008301526147ca816142c0565b9050919050565b600060208201905081810360008301526147ea816142e3565b9050919050565b6000602082019050818103600083015261480a81614306565b9050919050565b6000602082019050818103600083015261482a81614329565b9050919050565b6000602082019050818103600083015261484a8161434c565b9050919050565b6000602082019050818103600083015261486a8161436f565b9050919050565b6000602082019050818103600083015261488a816143b5565b9050919050565b600060208201905081810360008301526148aa816143d8565b9050919050565b600060208201905081810360008301526148ca816143fb565b9050919050565b600060208201905081810360008301526148ea8161441e565b9050919050565b6000602082019050818103600083015261490a81614441565b9050919050565b6000602082019050818103600083015261492a81614464565b9050919050565b60006020820190506149466000830184614496565b92915050565b6000614956614967565b90506149628282614c6c565b919050565b6000604051905090565b600067ffffffffffffffff82111561498c5761498b614e02565b5b61499582614e4f565b9050602081019050919050565b600067ffffffffffffffff8211156149bd576149bc614e02565b5b6149c682614e4f565b9050602081019050919050565b6000819050602082019050919050565b60008190508160005260206000209050919050565b600081519050919050565b600081519050919050565b600081519050919050565b6000602082019050919050565b600082825260208201905092915050565b600082825260208201905092915050565b600081905092915050565b600082825260208201905092915050565b600081905092915050565b6000614a7a82614bee565b9150614a8583614bee565b9250827fffffffffffffffffffffffffffffffffffffffffffffffffffffffffffffffff03821115614aba57614ab9614d17565b5b828201905092915050565b6000614ad082614bee565b9150614adb83614bee565b925082614aeb57614aea614d46565b5b828204905092915050565b6000614b0182614bee565b9150614b0c83614bee565b9250817fffffffffffffffffffffffffffffffffffffffffffffffffffffffffffffffff0483118215151615614b4557614b44614d17565b5b828202905092915050565b6000614b5b82614bee565b9150614b6683614bee565b925082821015614b7957614b78614d17565b5b828203905092915050565b6000614b8f82614bce565b9050919050565b60008115159050919050565b60007fffffffff0000000000000000000000000000000000000000000000000000000082169050919050565b600073ffffffffffffffffffffffffffffffffffffffff82169050919050565b6000819050919050565b82818337600083830152505050565b60005b83811015614c25578082015181840152602081019050614c0a565b83811115614c34576000848401525b50505050565b60006002820490506001821680614c5257607f821691505b60208210811415614c6657614c65614d75565b5b50919050565b614c7582614e4f565b810181811067ffffffffffffffff82111715614c9457614c93614e02565b5b80604052505050565b6000614ca882614bee565b91507fffffffffffffffffffffffffffffffffffffffffffffffffffffffffffffffff821415614cdb57614cda614d17565b5b600182019050919050565b6000614cf182614bee565b9150614cfc83614bee565b925082614d0c57614d0b614d46565b5b828206905092915050565b7f4e487b7100000000000000000000000000000000000000000000000000000000600052601160045260246000fd5b7f4e487b7100000000000000000000000000000000000000000000000000000000600052601260045260246000fd5b7f4e487b7100000000000000000000000000000000000000000000000000000000600052602260045260246000fd5b7f4e487b7100000000000000000000000000000000000000000000000000000000600052603160045260246000fd5b7f4e487b7100000000000000000000000000000000000000000000000000000000600052603260045260246000fd5b7f4e487b7100000000000000000000000000000000000000000000000000000000600052604160045260246000fd5b600080fd5b600080fd5b600080fd5b600080fd5b600080fd5b600080fd5b6000601f19601f8301169050919050565b7f50726573616c6520696d706f737369626c650000000000000000000000000000600082015250565b7f455243373231456e756d657261626c653a206f776e657220696e646578206f7560008201527f74206f6620626f756e6473000000000000000000000000000000000000000000602082015250565b7f4552433732313a207472616e7366657220746f206e6f6e20455243373231526560008201527f63656976657220696d706c656d656e7465720000000000000000000000000000602082015250565b7f4f776e61626c653a206e6577206f776e657220697320746865207a65726f206160008201527f6464726573730000000000000000000000000000000000000000000000000000602082015250565b7f4552433732313a207472616e736665722066726f6d20696e636f72726563742060008201527f6f776e6572000000000000000000000000000000000000000000000000000000602082015250565b7f5075626c69632073616c6520696d706f737369626c6500000000000000000000600082015250565b7f4552433732313a20746f6b656e20616c7265616479206d696e74656400000000600082015250565b7f6d6178204e465420706572206164647265737320657863656564656400000000600082015250565b7f4552433732313a207472616e7366657220746f20746865207a65726f2061646460008201527f7265737300000000000000000000000000000000000000000000000000000000602082015250565b7f4552433732313a20617070726f766520746f2063616c6c657200000000000000600082015250565b7f4552433732313a206f70657261746f7220717565727920666f72206e6f6e657860008201527f697374656e7420746f6b656e0000000000000000000000000000000000000000602082015250565b7f4552433732313a20617070726f76652063616c6c6572206973206e6f74206f7760008201527f6e6572206e6f7220617070726f76656420666f7220616c6c0000000000000000602082015250565b7f4552433732313a2062616c616e636520717565727920666f7220746865207a6560008201527f726f206164647265737300000000000000000000000000000000000000000000602082015250565b7f4552433732313a206f776e657220717565727920666f72206e6f6e657869737460008201527f656e7420746f6b656e0000000000000000000000000000000000000000000000602082015250565b7f6d6178204e4654206c696d697420657863656564656400000000000000000000600082015250565b7f6d6178206d696e7420616d6f756e74207065722073657373696f6e206578636560008201527f6564656400000000000000000000000000000000000000000000000000000000602082015250565b7f4552433732313a206d696e7420746f20746865207a65726f2061646472657373600082015250565b7f4552433732313a20617070726f76656420717565727920666f72206e6f6e657860008201527f697374656e7420746f6b656e0000000000000000000000000000000000000000602082015250565b7f4f776e61626c653a2063616c6c6572206973206e6f7420746865206f776e6572600082015250565b7f74686520636f6e74726163742069732070617573656400000000000000000000600082015250565b7f4552433732314d657461646174613a2055524920717565727920666f72206e6f60008201527f6e6578697374656e7420746f6b656e0000000000000000000000000000000000602082015250565b7f4552433732313a20617070726f76616c20746f2063757272656e74206f776e6560008201527f7200000000000000000000000000000000000000000000000000000000000000602082015250565b50565b7f696e73756666696369656e742066756e64730000000000000000000000000000600082015250565b7f4552433732313a207472616e736665722063616c6c6572206973206e6f74206f60008201527f776e6572206e6f7220617070726f766564000000000000000000000000000000602082015250565b7f455243373231456e756d657261626c653a20676c6f62616c20696e646578206f60008201527f7574206f6620626f756e64730000000000000000000000000000000000000000602082015250565b7f75736572206973206e6f742077686974656c6973746564000000000000000000600082015250565b7f6e65656420746f206d696e74206174206c656173742031204e46540000000000600082015250565b7f77686974656c697374696e6720696d706f737369626c65000000000000000000600082015250565b61552281614b84565b811461552d57600080fd5b50565b61553981614b96565b811461554457600080fd5b50565b61555081614ba2565b811461555b57600080fd5b50565b61556781614bee565b811461557257600080fd5b5056fea2646970667358221220337412beb54b543cc76685c51c9e3ba9262d388387ed284ad6b44f55718eb70e64736f6c63430008070033",
  "linkReferences": {},
  "deployedLinkReferences": {}
}