{
  "_format": "hh-sol-artifact-1",
  "contractName": "NFT",
  "sourceName": "contracts/NftContractLowGas.sol",
  "abi": [
    {
      "inputs": [
        {
          "internalType": "string",
          "name": "_tokenName",
          "type": "string"
        },
        {
          "internalType": "string",
          "name": "_tokenSymbol",
          "type": "string"
        },
        {
          "internalType": "uint256",
          "name": "_cost",
          "type": "uint256"
        },
        {
          "internalType": "uint256",
          "name": "_maxSupply",
          "type": "uint256"
        },
        {
          "internalType": "uint256",
          "name": "_maxMintAmountPerTx",
          "type": "uint256"
        },
        {
          "internalType": "string",
          "name": "_hiddenMetadataUri",
          "type": "string"
        }
      ],
      "stateMutability": "nonpayable",
      "type": "constructor"
    },
    {
      "inputs": [],
      "name": "ApprovalCallerNotOwnerNorApproved",
      "type": "error"
    },
    {
      "inputs": [],
      "name": "ApprovalQueryForNonexistentToken",
      "type": "error"
    },
    {
      "inputs": [],
      "name": "ApproveToCaller",
      "type": "error"
    },
    {
      "inputs": [],
      "name": "BalanceQueryForZeroAddress",
      "type": "error"
    },
    {
      "inputs": [],
      "name": "InvalidQueryRange",
      "type": "error"
    },
    {
      "inputs": [],
      "name": "MintERC2309QuantityExceedsLimit",
      "type": "error"
    },
    {
      "inputs": [],
      "name": "MintToZeroAddress",
      "type": "error"
    },
    {
      "inputs": [],
      "name": "MintZeroQuantity",
      "type": "error"
    },
    {
      "inputs": [],
      "name": "OwnerQueryForNonexistentToken",
      "type": "error"
    },
    {
      "inputs": [],
      "name": "OwnershipNotInitializedForExtraData",
      "type": "error"
    },
    {
      "inputs": [],
      "name": "TransferCallerNotOwnerNorApproved",
      "type": "error"
    },
    {
      "inputs": [],
      "name": "TransferFromIncorrectOwner",
      "type": "error"
    },
    {
      "inputs": [],
      "name": "TransferToNonERC721ReceiverImplementer",
      "type": "error"
    },
    {
      "inputs": [],
      "name": "TransferToZeroAddress",
      "type": "error"
    },
    {
      "inputs": [],
      "name": "URIQueryForNonexistentToken",
      "type": "error"
    },
    {
      "anonymous": false,
      "inputs": [
        {
          "indexed": true,
          "internalType": "address",
          "name": "owner",
          "type": "address"
        },
        {
          "indexed": true,
          "internalType": "address",
          "name": "approved",
          "type": "address"
        },
        {
          "indexed": true,
          "internalType": "uint256",
          "name": "tokenId",
          "type": "uint256"
        }
      ],
      "name": "Approval",
      "type": "event"
    },
    {
      "anonymous": false,
      "inputs": [
        {
          "indexed": true,
          "internalType": "address",
          "name": "owner",
          "type": "address"
        },
        {
          "indexed": true,
          "internalType": "address",
          "name": "operator",
          "type": "address"
        },
        {
          "indexed": false,
          "internalType": "bool",
          "name": "approved",
          "type": "bool"
        }
      ],
      "name": "ApprovalForAll",
      "type": "event"
    },
    {
      "anonymous": false,
      "inputs": [
        {
          "indexed": true,
          "internalType": "uint256",
          "name": "fromTokenId",
          "type": "uint256"
        },
        {
          "indexed": false,
          "internalType": "uint256",
          "name": "toTokenId",
          "type": "uint256"
        },
        {
          "indexed": true,
          "internalType": "address",
          "name": "from",
          "type": "address"
        },
        {
          "indexed": true,
          "internalType": "address",
          "name": "to",
          "type": "address"
        }
      ],
      "name": "ConsecutiveTransfer",
      "type": "event"
    },
    {
      "anonymous": false,
      "inputs": [
        {
          "indexed": true,
          "internalType": "address",
          "name": "previousOwner",
          "type": "address"
        },
        {
          "indexed": true,
          "internalType": "address",
          "name": "newOwner",
          "type": "address"
        }
      ],
      "name": "OwnershipTransferred",
      "type": "event"
    },
    {
      "anonymous": false,
      "inputs": [
        {
          "indexed": true,
          "internalType": "address",
          "name": "from",
          "type": "address"
        },
        {
          "indexed": true,
          "internalType": "address",
          "name": "to",
          "type": "address"
        },
        {
          "indexed": true,
          "internalType": "uint256",
          "name": "tokenId",
          "type": "uint256"
        }
      ],
      "name": "Transfer",
      "type": "event"
    },
    {
      "inputs": [
        {
          "internalType": "address",
          "name": "to",
          "type": "address"
        },
        {
          "internalType": "uint256",
          "name": "tokenId",
          "type": "uint256"
        }
      ],
      "name": "approve",
      "outputs": [],
      "stateMutability": "nonpayable",
      "type": "function"
    },
    {
      "inputs": [
        {
          "internalType": "address",
          "name": "owner",
          "type": "address"
        }
      ],
      "name": "balanceOf",
      "outputs": [
        {
          "internalType": "uint256",
          "name": "",
          "type": "uint256"
        }
      ],
      "stateMutability": "view",
      "type": "function"
    },
    {
      "inputs": [],
      "name": "cost",
      "outputs": [
        {
          "internalType": "uint256",
          "name": "",
          "type": "uint256"
        }
      ],
      "stateMutability": "view",
      "type": "function"
    },
    {
      "inputs": [
        {
          "internalType": "uint256",
          "name": "tokenId",
          "type": "uint256"
        }
      ],
      "name": "explicitOwnershipOf",
      "outputs": [
        {
          "components": [
            {
              "internalType": "address",
              "name": "addr",
              "type": "address"
            },
            {
              "internalType": "uint64",
              "name": "startTimestamp",
              "type": "uint64"
            },
            {
              "internalType": "bool",
              "name": "burned",
              "type": "bool"
            },
            {
              "internalType": "uint24",
              "name": "extraData",
              "type": "uint24"
            }
          ],
          "internalType": "struct IERC721A.TokenOwnership",
          "name": "",
          "type": "tuple"
        }
      ],
      "stateMutability": "view",
      "type": "function"
    },
    {
      "inputs": [
        {
          "internalType": "uint256[]",
          "name": "tokenIds",
          "type": "uint256[]"
        }
      ],
      "name": "explicitOwnershipsOf",
      "outputs": [
        {
          "components": [
            {
              "internalType": "address",
              "name": "addr",
              "type": "address"
            },
            {
              "internalType": "uint64",
              "name": "startTimestamp",
              "type": "uint64"
            },
            {
              "internalType": "bool",
              "name": "burned",
              "type": "bool"
            },
            {
              "internalType": "uint24",
              "name": "extraData",
              "type": "uint24"
            }
          ],
          "internalType": "struct IERC721A.TokenOwnership[]",
          "name": "",
          "type": "tuple[]"
        }
      ],
      "stateMutability": "view",
      "type": "function"
    },
    {
      "inputs": [
        {
          "internalType": "uint256",
          "name": "tokenId",
          "type": "uint256"
        }
      ],
      "name": "getApproved",
      "outputs": [
        {
          "internalType": "address",
          "name": "",
          "type": "address"
        }
      ],
      "stateMutability": "view",
      "type": "function"
    },
    {
      "inputs": [],
      "name": "hiddenMetadataUri",
      "outputs": [
        {
          "internalType": "string",
          "name": "",
          "type": "string"
        }
      ],
      "stateMutability": "view",
      "type": "function"
    },
    {
      "inputs": [
        {
          "internalType": "address",
          "name": "owner",
          "type": "address"
        },
        {
          "internalType": "address",
          "name": "operator",
          "type": "address"
        }
      ],
      "name": "isApprovedForAll",
      "outputs": [
        {
          "internalType": "bool",
          "name": "",
          "type": "bool"
        }
      ],
      "stateMutability": "view",
      "type": "function"
    },
    {
      "inputs": [],
      "name": "maxMintAmountPerTx",
      "outputs": [
        {
          "internalType": "uint256",
          "name": "",
          "type": "uint256"
        }
      ],
      "stateMutability": "view",
      "type": "function"
    },
    {
      "inputs": [],
      "name": "maxSupply",
      "outputs": [
        {
          "internalType": "uint256",
          "name": "",
          "type": "uint256"
        }
      ],
      "stateMutability": "view",
      "type": "function"
    },
    {
      "inputs": [],
      "name": "merkleRoot",
      "outputs": [
        {
          "internalType": "bytes32",
          "name": "",
          "type": "bytes32"
        }
      ],
      "stateMutability": "view",
      "type": "function"
    },
    {
      "inputs": [
        {
          "internalType": "uint256",
          "name": "_mintAmount",
          "type": "uint256"
        }
      ],
      "name": "mint",
      "outputs": [],
      "stateMutability": "payable",
      "type": "function"
    },
    {
      "inputs": [
        {
          "internalType": "uint256",
          "name": "_mintAmount",
          "type": "uint256"
        },
        {
          "internalType": "address",
          "name": "_receiver",
          "type": "address"
        }
      ],
      "name": "mintForAddress",
      "outputs": [],
      "stateMutability": "nonpayable",
      "type": "function"
    },
    {
      "inputs": [],
      "name": "name",
      "outputs": [
        {
          "internalType": "string",
          "name": "",
          "type": "string"
        }
      ],
      "stateMutability": "view",
      "type": "function"
    },
    {
      "inputs": [],
      "name": "owner",
      "outputs": [
        {
          "internalType": "address",
          "name": "",
          "type": "address"
        }
      ],
      "stateMutability": "view",
      "type": "function"
    },
    {
      "inputs": [
        {
          "internalType": "uint256",
          "name": "tokenId",
          "type": "uint256"
        }
      ],
      "name": "ownerOf",
      "outputs": [
        {
          "internalType": "address",
          "name": "",
          "type": "address"
        }
      ],
      "stateMutability": "view",
      "type": "function"
    },
    {
      "inputs": [],
      "name": "paused",
      "outputs": [
        {
          "internalType": "bool",
          "name": "",
          "type": "bool"
        }
      ],
      "stateMutability": "view",
      "type": "function"
    },
    {
      "inputs": [],
      "name": "renounceOwnership",
      "outputs": [],
      "stateMutability": "nonpayable",
      "type": "function"
    },
    {
      "inputs": [],
      "name": "revealed",
      "outputs": [
        {
          "internalType": "bool",
          "name": "",
          "type": "bool"
        }
      ],
      "stateMutability": "view",
      "type": "function"
    },
    {
      "inputs": [
        {
          "internalType": "address",
          "name": "from",
          "type": "address"
        },
        {
          "internalType": "address",
          "name": "to",
          "type": "address"
        },
        {
          "internalType": "uint256",
          "name": "tokenId",
          "type": "uint256"
        }
      ],
      "name": "safeTransferFrom",
      "outputs": [],
      "stateMutability": "nonpayable",
      "type": "function"
    },
    {
      "inputs": [
        {
          "internalType": "address",
          "name": "from",
          "type": "address"
        },
        {
          "internalType": "address",
          "name": "to",
          "type": "address"
        },
        {
          "internalType": "uint256",
          "name": "tokenId",
          "type": "uint256"
        },
        {
          "internalType": "bytes",
          "name": "_data",
          "type": "bytes"
        }
      ],
      "name": "safeTransferFrom",
      "outputs": [],
      "stateMutability": "nonpayable",
      "type": "function"
    },
    {
      "inputs": [
        {
          "internalType": "address",
          "name": "operator",
          "type": "address"
        },
        {
          "internalType": "bool",
          "name": "approved",
          "type": "bool"
        }
      ],
      "name": "setApprovalForAll",
      "outputs": [],
      "stateMutability": "nonpayable",
      "type": "function"
    },
    {
      "inputs": [
        {
          "internalType": "uint256",
          "name": "_cost",
          "type": "uint256"
        }
      ],
      "name": "setCost",
      "outputs": [],
      "stateMutability": "nonpayable",
      "type": "function"
    },
    {
      "inputs": [
        {
          "internalType": "string",
          "name": "_hiddenMetadataUri",
          "type": "string"
        }
      ],
      "name": "setHiddenMetadataUri",
      "outputs": [],
      "stateMutability": "nonpayable",
      "type": "function"
    },
    {
      "inputs": [
        {
          "internalType": "uint256",
          "name": "_maxMintAmountPerTx",
          "type": "uint256"
        }
      ],
      "name": "setMaxMintAmountPerTx",
      "outputs": [],
      "stateMutability": "nonpayable",
      "type": "function"
    },
    {
      "inputs": [
        {
          "internalType": "bytes32",
          "name": "_merkleRoot",
          "type": "bytes32"
        }
      ],
      "name": "setMerkleRoot",
      "outputs": [],
      "stateMutability": "nonpayable",
      "type": "function"
    },
    {
      "inputs": [
        {
          "internalType": "bool",
          "name": "_state",
          "type": "bool"
        }
      ],
      "name": "setPaused",
      "outputs": [],
      "stateMutability": "nonpayable",
      "type": "function"
    },
    {
      "inputs": [
        {
          "internalType": "bool",
          "name": "_state",
          "type": "bool"
        }
      ],
      "name": "setRevealed",
      "outputs": [],
      "stateMutability": "nonpayable",
      "type": "function"
    },
    {
      "inputs": [
        {
          "internalType": "string",
          "name": "_uriPrefix",
          "type": "string"
        }
      ],
      "name": "setUriPrefix",
      "outputs": [],
      "stateMutability": "nonpayable",
      "type": "function"
    },
    {
      "inputs": [
        {
          "internalType": "string",
          "name": "_uriSuffix",
          "type": "string"
        }
      ],
      "name": "setUriSuffix",
      "outputs": [],
      "stateMutability": "nonpayable",
      "type": "function"
    },
    {
      "inputs": [
        {
          "internalType": "bool",
          "name": "_state",
          "type": "bool"
        }
      ],
      "name": "setWhitelistMintEnabled",
      "outputs": [],
      "stateMutability": "nonpayable",
      "type": "function"
    },
    {
      "inputs": [
        {
          "internalType": "bytes4",
          "name": "interfaceId",
          "type": "bytes4"
        }
      ],
      "name": "supportsInterface",
      "outputs": [
        {
          "internalType": "bool",
          "name": "",
          "type": "bool"
        }
      ],
      "stateMutability": "view",
      "type": "function"
    },
    {
      "inputs": [],
      "name": "symbol",
      "outputs": [
        {
          "internalType": "string",
          "name": "",
          "type": "string"
        }
      ],
      "stateMutability": "view",
      "type": "function"
    },
    {
      "inputs": [
        {
          "internalType": "uint256",
          "name": "_tokenId",
          "type": "uint256"
        }
      ],
      "name": "tokenURI",
      "outputs": [
        {
          "internalType": "string",
          "name": "",
          "type": "string"
        }
      ],
      "stateMutability": "view",
      "type": "function"
    },
    {
      "inputs": [
        {
          "internalType": "address",
          "name": "owner",
          "type": "address"
        }
      ],
      "name": "tokensOfOwner",
      "outputs": [
        {
          "internalType": "uint256[]",
          "name": "",
          "type": "uint256[]"
        }
      ],
      "stateMutability": "view",
      "type": "function"
    },
    {
      "inputs": [
        {
          "internalType": "address",
          "name": "owner",
          "type": "address"
        },
        {
          "internalType": "uint256",
          "name": "start",
          "type": "uint256"
        },
        {
          "internalType": "uint256",
          "name": "stop",
          "type": "uint256"
        }
      ],
      "name": "tokensOfOwnerIn",
      "outputs": [
        {
          "internalType": "uint256[]",
          "name": "",
          "type": "uint256[]"
        }
      ],
      "stateMutability": "view",
      "type": "function"
    },
    {
      "inputs": [],
      "name": "totalSupply",
      "outputs": [
        {
          "internalType": "uint256",
          "name": "",
          "type": "uint256"
        }
      ],
      "stateMutability": "view",
      "type": "function"
    },
    {
      "inputs": [
        {
          "internalType": "address",
          "name": "from",
          "type": "address"
        },
        {
          "internalType": "address",
          "name": "to",
          "type": "address"
        },
        {
          "internalType": "uint256",
          "name": "tokenId",
          "type": "uint256"
        }
      ],
      "name": "transferFrom",
      "outputs": [],
      "stateMutability": "nonpayable",
      "type": "function"
    },
    {
      "inputs": [
        {
          "internalType": "address",
          "name": "newOwner",
          "type": "address"
        }
      ],
      "name": "transferOwnership",
      "outputs": [],
      "stateMutability": "nonpayable",
      "type": "function"
    },
    {
      "inputs": [],
      "name": "uriPrefix",
      "outputs": [
        {
          "internalType": "string",
          "name": "",
          "type": "string"
        }
      ],
      "stateMutability": "view",
      "type": "function"
    },
    {
      "inputs": [],
      "name": "uriSuffix",
      "outputs": [
        {
          "internalType": "string",
          "name": "",
          "type": "string"
        }
      ],
      "stateMutability": "view",
      "type": "function"
    },
    {
      "inputs": [
        {
          "internalType": "address",
          "name": "",
          "type": "address"
        }
      ],
      "name": "whitelistClaimed",
      "outputs": [
        {
          "internalType": "bool",
          "name": "",
          "type": "bool"
        }
      ],
      "stateMutability": "view",
      "type": "function"
    },
    {
      "inputs": [
        {
          "internalType": "uint256",
          "name": "_mintAmount",
          "type": "uint256"
        },
        {
          "internalType": "bytes32[]",
          "name": "_merkleProof",
          "type": "bytes32[]"
        }
      ],
      "name": "whitelistMint",
      "outputs": [],
      "stateMutability": "payable",
      "type": "function"
    },
    {
      "inputs": [],
      "name": "whitelistMintEnabled",
      "outputs": [
        {
          "internalType": "bool",
          "name": "",
          "type": "bool"
        }
      ],
      "stateMutability": "view",
      "type": "function"
    },
    {
      "inputs": [],
      "name": "withdraw",
      "outputs": [],
      "stateMutability": "nonpayable",
      "type": "function"
    }
  ],
  "bytecode": "0x608060405260405180602001604052806000815250600a90805190602001906200002b92919062000496565b506040518060400160405280600581526020017f2e6a736f6e000000000000000000000000000000000000000000000000000000815250600b90805190602001906200007992919062000496565b506001601060006101000a81548160ff0219169083151502179055506000601060016101000a81548160ff0219169083151502179055506000601060026101000a81548160ff021916908315150217905550348015620000d857600080fd5b50604051620055b1380380620055b18339818101604052810190620000fe9190620005db565b858581600290805190602001906200011892919062000496565b5080600390805190602001906200013192919062000496565b5062000142620001b860201b60201c565b60008190555050506200016a6200015e620001c160201b60201c565b620001c960201b60201c565b600160098190555062000183846200028f60201b60201c565b82600e819055506200019b826200032860201b60201c565b620001ac81620003c160201b60201c565b505050505050620008ff565b60006001905090565b600033905090565b6000600860009054906101000a900473ffffffffffffffffffffffffffffffffffffffff16905081600860006101000a81548173ffffffffffffffffffffffffffffffffffffffff021916908373ffffffffffffffffffffffffffffffffffffffff1602179055508173ffffffffffffffffffffffffffffffffffffffff168173ffffffffffffffffffffffffffffffffffffffff167f8be0079c531659141344cd1fd0a4f28419497f9722a3daafe3b4186f6b6457e060405160405180910390a35050565b6200029f620001c160201b60201c565b73ffffffffffffffffffffffffffffffffffffffff16620002c56200046c60201b60201c565b73ffffffffffffffffffffffffffffffffffffffff16146200031e576040517f08c379a00000000000000000000000000000000000000000000000000000000081526004016200031590620006fb565b60405180910390fd5b80600d8190555050565b62000338620001c160201b60201c565b73ffffffffffffffffffffffffffffffffffffffff166200035e6200046c60201b60201c565b73ffffffffffffffffffffffffffffffffffffffff1614620003b7576040517f08c379a0000000000000000000000000000000000000000000000000000000008152600401620003ae90620006fb565b60405180910390fd5b80600f8190555050565b620003d1620001c160201b60201c565b73ffffffffffffffffffffffffffffffffffffffff16620003f76200046c60201b60201c565b73ffffffffffffffffffffffffffffffffffffffff161462000450576040517f08c379a00000000000000000000000000000000000000000000000000000000081526004016200044790620006fb565b60405180910390fd5b80600c90805190602001906200046892919062000496565b5050565b6000600860009054906101000a900473ffffffffffffffffffffffffffffffffffffffff16905090565b828054620004a490620007cd565b90600052602060002090601f016020900481019282620004c8576000855562000514565b82601f10620004e357805160ff191683800117855562000514565b8280016001018555821562000514579182015b8281111562000513578251825591602001919060010190620004f6565b5b50905062000523919062000527565b5090565b5b808211156200054257600081600090555060010162000528565b5090565b60006200055d620005578462000746565b6200071d565b9050828152602081018484840111156200057c576200057b6200089c565b5b6200058984828562000797565b509392505050565b600082601f830112620005a957620005a862000897565b5b8151620005bb84826020860162000546565b91505092915050565b600081519050620005d581620008e5565b92915050565b60008060008060008060c08789031215620005fb57620005fa620008a6565b5b600087015167ffffffffffffffff8111156200061c576200061b620008a1565b5b6200062a89828a0162000591565b965050602087015167ffffffffffffffff8111156200064e576200064d620008a1565b5b6200065c89828a0162000591565b95505060406200066f89828a01620005c4565b94505060606200068289828a01620005c4565b93505060806200069589828a01620005c4565b92505060a087015167ffffffffffffffff811115620006b957620006b8620008a1565b5b620006c789828a0162000591565b9150509295509295509295565b6000620006e36020836200077c565b9150620006f082620008bc565b602082019050919050565b600060208201905081810360008301526200071681620006d4565b9050919050565b6000620007296200073c565b905062000737828262000803565b919050565b6000604051905090565b600067ffffffffffffffff82111562000764576200076362000868565b5b6200076f82620008ab565b9050602081019050919050565b600082825260208201905092915050565b6000819050919050565b60005b83811015620007b75780820151818401526020810190506200079a565b83811115620007c7576000848401525b50505050565b60006002820490506001821680620007e657607f821691505b60208210811415620007fd57620007fc62000839565b5b50919050565b6200080e82620008ab565b810181811067ffffffffffffffff8211171562000830576200082f62000868565b5b80604052505050565b7f4e487b7100000000000000000000000000000000000000000000000000000000600052602260045260246000fd5b7f4e487b7100000000000000000000000000000000000000000000000000000000600052604160045260246000fd5b600080fd5b600080fd5b600080fd5b600080fd5b6000601f19601f8301169050919050565b7f4f776e61626c653a2063616c6c6572206973206e6f7420746865206f776e6572600082015250565b620008f0816200078d565b8114620008fc57600080fd5b50565b614ca2806200090f6000396000f3fe6080604052600436106102725760003560e01c8063715018a61161014f578063b071401b116100c1578063d5abeb011161007a578063d5abeb0114610946578063db4bec4414610971578063e0a80853146109ae578063e985e9c5146109d7578063efbd73f414610a14578063f2fde38b14610a3d57610272565b8063b071401b14610835578063b767a0981461085e578063b88d4fde14610887578063c23dc68f146108b0578063c87b56dd146108ed578063d2cab0561461092a57610272565b806394354fd01161011357806394354fd01461073257806395d89b411461075d57806399a2557a14610788578063a0712d68146107c5578063a22cb465146107e1578063a45ba8e71461080a57610272565b8063715018a6146106615780637cb64759146106785780637ec4a659146106a15780638462151c146106ca5780638da5cb5b1461070757610272565b806342842e0e116101e85780635bbb2177116101ac5780635bbb2177146105295780635c975abb1461056657806362b99ad4146105915780636352211e146105bc5780636caede3d146105f957806370a082311461062457610272565b806342842e0e1461045857806344a0d68a146104815780634fdd43cb146104aa57806351830227146104d35780635503a0e8146104fe57610272565b806316ba10e01161023a57806316ba10e01461037057806316c38b3c1461039957806318160ddd146103c257806323b872dd146103ed5780632eb4a7ab146104165780633ccfd60b1461044157610272565b806301ffc9a71461027757806306fdde03146102b4578063081812fc146102df578063095ea7b31461031c57806313faede614610345575b600080fd5b34801561028357600080fd5b5061029e60048036038101906102999190613ab5565b610a66565b6040516102ab919061422b565b60405180910390f35b3480156102c057600080fd5b506102c9610af8565b6040516102d69190614261565b60405180910390f35b3480156102eb57600080fd5b5061030660048036038101906103019190613b58565b610b8a565b6040516103139190614180565b60405180910390f35b34801561032857600080fd5b50610343600480360381019061033e919061397f565b610c06565b005b34801561035157600080fd5b5061035a610d47565b60405161036791906143fe565b60405180910390f35b34801561037c57600080fd5b5061039760048036038101906103929190613b0f565b610d4d565b005b3480156103a557600080fd5b506103c060048036038101906103bb9190613a5b565b610de3565b005b3480156103ce57600080fd5b506103d7610e7c565b6040516103e491906143fe565b60405180910390f35b3480156103f957600080fd5b50610414600480360381019061040f9190613869565b610e93565b005b34801561042257600080fd5b5061042b6111b8565b6040516104389190614246565b60405180910390f35b34801561044d57600080fd5b506104566111be565b005b34801561046457600080fd5b5061047f600480360381019061047a9190613869565b611310565b005b34801561048d57600080fd5b506104a860048036038101906104a39190613b58565b611330565b005b3480156104b657600080fd5b506104d160048036038101906104cc9190613b0f565b6113b6565b005b3480156104df57600080fd5b506104e861144c565b6040516104f5919061422b565b60405180910390f35b34801561050a57600080fd5b5061051361145f565b6040516105209190614261565b60405180910390f35b34801561053557600080fd5b50610550600480360381019061054b9190613a12565b6114ed565b60405161055d91906141e7565b60405180910390f35b34801561057257600080fd5b5061057b6115ae565b604051610588919061422b565b60405180910390f35b34801561059d57600080fd5b506105a66115c1565b6040516105b39190614261565b60405180910390f35b3480156105c857600080fd5b506105e360048036038101906105de9190613b58565b61164f565b6040516105f09190614180565b60405180910390f35b34801561060557600080fd5b5061060e611661565b60405161061b919061422b565b60405180910390f35b34801561063057600080fd5b5061064b600480360381019061064691906137fc565b611674565b60405161065891906143fe565b60405180910390f35b34801561066d57600080fd5b5061067661172d565b005b34801561068457600080fd5b5061069f600480360381019061069a9190613a88565b6117b5565b005b3480156106ad57600080fd5b506106c860048036038101906106c39190613b0f565b61183b565b005b3480156106d657600080fd5b506106f160048036038101906106ec91906137fc565b6118d1565b6040516106fe9190614209565b60405180910390f35b34801561071357600080fd5b5061071c611a1b565b6040516107299190614180565b60405180910390f35b34801561073e57600080fd5b50610747611a45565b60405161075491906143fe565b60405180910390f35b34801561076957600080fd5b50610772611a4b565b60405161077f9190614261565b60405180910390f35b34801561079457600080fd5b506107af60048036038101906107aa91906139bf565b611add565b6040516107bc9190614209565b60405180910390f35b6107df60048036038101906107da9190613b58565b611cf1565b005b3480156107ed57600080fd5b506108086004803603810190610803919061393f565b611e51565b005b34801561081657600080fd5b5061081f611fc9565b60405161082c9190614261565b60405180910390f35b34801561084157600080fd5b5061085c60048036038101906108579190613b58565b612057565b005b34801561086a57600080fd5b5061088560048036038101906108809190613a5b565b6120dd565b005b34801561089357600080fd5b506108ae60048036038101906108a991906138bc565b612176565b005b3480156108bc57600080fd5b506108d760048036038101906108d29190613b58565b6121e9565b6040516108e491906143e3565b60405180910390f35b3480156108f957600080fd5b50610914600480360381019061090f9190613b58565b612253565b6040516109219190614261565b60405180910390f35b610944600480360381019061093f9190613bc5565b6123ac565b005b34801561095257600080fd5b5061095b6126c0565b60405161096891906143fe565b60405180910390f35b34801561097d57600080fd5b50610998600480360381019061099391906137fc565b6126c6565b6040516109a5919061422b565b60405180910390f35b3480156109ba57600080fd5b506109d560048036038101906109d09190613a5b565b6126e6565b005b3480156109e357600080fd5b506109fe60048036038101906109f99190613829565b61277f565b604051610a0b919061422b565b60405180910390f35b348015610a2057600080fd5b50610a3b6004803603810190610a369190613b85565b612813565b005b348015610a4957600080fd5b50610a646004803603810190610a5f91906137fc565b612947565b005b60006301ffc9a760e01b827bffffffffffffffffffffffffffffffffffffffffffffffffffffffff19161480610ac157506380ac58cd60e01b827bffffffffffffffffffffffffffffffffffffffffffffffffffffffff1916145b80610af15750635b5e139f60e01b827bffffffffffffffffffffffffffffffffffffffffffffffffffffffff1916145b9050919050565b606060028054610b0790614799565b80601f0160208091040260200160405190810160405280929190818152602001828054610b3390614799565b8015610b805780601f10610b5557610100808354040283529160200191610b80565b820191906000526020600020905b815481529060010190602001808311610b6357829003601f168201915b5050505050905090565b6000610b9582612a3f565b610bcb576040517fcf4700e400000000000000000000000000000000000000000000000000000000815260040160405180910390fd5b6006600083815260200190815260200160002060009054906101000a900473ffffffffffffffffffffffffffffffffffffffff169050919050565b6000610c118261164f565b90508073ffffffffffffffffffffffffffffffffffffffff16610c32612a9e565b73ffffffffffffffffffffffffffffffffffffffff1614610c9557610c5e81610c59612a9e565b61277f565b610c94576040517fcfb3b94200000000000000000000000000000000000000000000000000000000815260040160405180910390fd5b5b826006600084815260200190815260200160002060006101000a81548173ffffffffffffffffffffffffffffffffffffffff021916908373ffffffffffffffffffffffffffffffffffffffff160217905550818373ffffffffffffffffffffffffffffffffffffffff168273ffffffffffffffffffffffffffffffffffffffff167f8c5be1e5ebec7d5bd14f71427d1e84f3dd0314c0f7b2291e5b200ac8c7c3b92560405160405180910390a4505050565b600d5481565b610d55612aa6565b73ffffffffffffffffffffffffffffffffffffffff16610d73611a1b565b73ffffffffffffffffffffffffffffffffffffffff1614610dc9576040517f08c379a0000000000000000000000000000000000000000000000000000000008152600401610dc0906142e3565b60405180910390fd5b80600b9080519060200190610ddf9291906134b8565b5050565b610deb612aa6565b73ffffffffffffffffffffffffffffffffffffffff16610e09611a1b565b73ffffffffffffffffffffffffffffffffffffffff1614610e5f576040517f08c379a0000000000000000000000000000000000000000000000000000000008152600401610e56906142e3565b60405180910390fd5b80601060006101000a81548160ff02191690831515021790555050565b6000610e86612aae565b6001546000540303905090565b6000610e9e82612ab7565b90508373ffffffffffffffffffffffffffffffffffffffff168173ffffffffffffffffffffffffffffffffffffffff1614610f05576040517fa114810000000000000000000000000000000000000000000000000000000000815260040160405180910390fd5b600080610f1184612b85565b91509150610f278187610f22612a9e565b612ba7565b610f7357610f3c86610f37612a9e565b61277f565b610f72576040517f59c896be00000000000000000000000000000000000000000000000000000000815260040160405180910390fd5b5b600073ffffffffffffffffffffffffffffffffffffffff168573ffffffffffffffffffffffffffffffffffffffff161415610fda576040517fea553b3400000000000000000000000000000000000000000000000000000000815260040160405180910390fd5b610fe78686866001612beb565b8015610ff257600082555b600560008773ffffffffffffffffffffffffffffffffffffffff1673ffffffffffffffffffffffffffffffffffffffff168152602001908152602001600020600081546001900391905081905550600560008673ffffffffffffffffffffffffffffffffffffffff1673ffffffffffffffffffffffffffffffffffffffff16815260200190815260200160002060008154600101919050819055506110c08561109c888887612bf1565b7c020000000000000000000000000000000000000000000000000000000017612c19565b600460008681526020019081526020016000208190555060007c020000000000000000000000000000000000000000000000000000000084161415611148576000600185019050600060046000838152602001908152602001600020541415611146576000548114611145578360046000838152602001908152602001600020819055505b5b505b838573ffffffffffffffffffffffffffffffffffffffff168773ffffffffffffffffffffffffffffffffffffffff167fddf252ad1be2c89b69c2b068fc378daa952ba7f163c4a11628f55a4df523b3ef60405160405180910390a46111b08686866001612c44565b505050505050565b60115481565b6111c6612aa6565b73ffffffffffffffffffffffffffffffffffffffff166111e4611a1b565b73ffffffffffffffffffffffffffffffffffffffff161461123a576040517f08c379a0000000000000000000000000000000000000000000000000000000008152600401611231906142e3565b60405180910390fd5b60026009541415611280576040517f08c379a0000000000000000000000000000000000000000000000000000000008152600401611277906143a3565b60405180910390fd5b60026009819055506000611292611a1b565b73ffffffffffffffffffffffffffffffffffffffff16476040516112b59061416b565b60006040518083038185875af1925050503d80600081146112f2576040519150601f19603f3d011682016040523d82523d6000602084013e6112f7565b606091505b505090508061130557600080fd5b506001600981905550565b61132b83838360405180602001604052806000815250612176565b505050565b611338612aa6565b73ffffffffffffffffffffffffffffffffffffffff16611356611a1b565b73ffffffffffffffffffffffffffffffffffffffff16146113ac576040517f08c379a00000000000000000000000000000000000000000000000000000000081526004016113a3906142e3565b60405180910390fd5b80600d8190555050565b6113be612aa6565b73ffffffffffffffffffffffffffffffffffffffff166113dc611a1b565b73ffffffffffffffffffffffffffffffffffffffff1614611432576040517f08c379a0000000000000000000000000000000000000000000000000000000008152600401611429906142e3565b60405180910390fd5b80600c90805190602001906114489291906134b8565b5050565b601060029054906101000a900460ff1681565b600b805461146c90614799565b80601f016020809104026020016040519081016040528092919081815260200182805461149890614799565b80156114e55780601f106114ba576101008083540402835291602001916114e5565b820191906000526020600020905b8154815290600101906020018083116114c857829003601f168201915b505050505081565b606060008251905060008167ffffffffffffffff81111561151157611510614956565b5b60405190808252806020026020018201604052801561154a57816020015b61153761353e565b81526020019060019003908161152f5790505b50905060005b8281146115a35761157a85828151811061156d5761156c614927565b5b60200260200101516121e9565b82828151811061158d5761158c614927565b5b6020026020010181905250806001019050611550565b508092505050919050565b601060009054906101000a900460ff1681565b600a80546115ce90614799565b80601f01602080910402602001604051908101604052809291908181526020018280546115fa90614799565b80156116475780601f1061161c57610100808354040283529160200191611647565b820191906000526020600020905b81548152906001019060200180831161162a57829003601f168201915b505050505081565b600061165a82612ab7565b9050919050565b601060019054906101000a900460ff1681565b60008073ffffffffffffffffffffffffffffffffffffffff168273ffffffffffffffffffffffffffffffffffffffff1614156116dc576040517f8f4eb60400000000000000000000000000000000000000000000000000000000815260040160405180910390fd5b67ffffffffffffffff600560008473ffffffffffffffffffffffffffffffffffffffff1673ffffffffffffffffffffffffffffffffffffffff16815260200190815260200160002054169050919050565b611735612aa6565b73ffffffffffffffffffffffffffffffffffffffff16611753611a1b565b73ffffffffffffffffffffffffffffffffffffffff16146117a9576040517f08c379a00000000000000000000000000000000000000000000000000000000081526004016117a0906142e3565b60405180910390fd5b6117b36000612c4a565b565b6117bd612aa6565b73ffffffffffffffffffffffffffffffffffffffff166117db611a1b565b73ffffffffffffffffffffffffffffffffffffffff1614611831576040517f08c379a0000000000000000000000000000000000000000000000000000000008152600401611828906142e3565b60405180910390fd5b8060118190555050565b611843612aa6565b73ffffffffffffffffffffffffffffffffffffffff16611861611a1b565b73ffffffffffffffffffffffffffffffffffffffff16146118b7576040517f08c379a00000000000000000000000000000000000000000000000000000000081526004016118ae906142e3565b60405180910390fd5b80600a90805190602001906118cd9291906134b8565b5050565b606060008060006118e185611674565b905060008167ffffffffffffffff8111156118ff576118fe614956565b5b60405190808252806020026020018201604052801561192d5781602001602082028036833780820191505090505b50905061193861353e565b6000611942612aae565b90505b838614611a0d5761195581612d10565b915081604001511561196657611a02565b600073ffffffffffffffffffffffffffffffffffffffff16826000015173ffffffffffffffffffffffffffffffffffffffff16146119a657816000015194505b8773ffffffffffffffffffffffffffffffffffffffff168573ffffffffffffffffffffffffffffffffffffffff161415611a0157808387806001019850815181106119f4576119f3614927565b5b6020026020010181815250505b5b806001019050611945565b508195505050505050919050565b6000600860009054906101000a900473ffffffffffffffffffffffffffffffffffffffff16905090565b600f5481565b606060038054611a5a90614799565b80601f0160208091040260200160405190810160405280929190818152602001828054611a8690614799565b8015611ad35780601f10611aa857610100808354040283529160200191611ad3565b820191906000526020600020905b815481529060010190602001808311611ab657829003601f168201915b5050505050905090565b6060818310611b18576040517f32c1995a00000000000000000000000000000000000000000000000000000000815260040160405180910390fd5b600080611b23612d3b565b9050611b2d612aae565b851015611b3f57611b3c612aae565b94505b80841115611b4b578093505b6000611b5687611674565b905084861015611b79576000868603905081811015611b73578091505b50611b7e565b600090505b60008167ffffffffffffffff811115611b9a57611b99614956565b5b604051908082528060200260200182016040528015611bc85781602001602082028036833780820191505090505b5090506000821415611be05780945050505050611cea565b6000611beb886121e9565b905060008160400151611c0057816000015190505b60008990505b888114158015611c165750848714155b15611cdc57611c2481612d10565b9250826040015115611c3557611cd1565b600073ffffffffffffffffffffffffffffffffffffffff16836000015173ffffffffffffffffffffffffffffffffffffffff1614611c7557826000015191505b8a73ffffffffffffffffffffffffffffffffffffffff168273ffffffffffffffffffffffffffffffffffffffff161415611cd05780848880600101995081518110611cc357611cc2614927565b5b6020026020010181815250505b5b806001019050611c06565b508583528296505050505050505b9392505050565b80600081118015611d045750600f548111155b611d43576040517f08c379a0000000000000000000000000000000000000000000000000000000008152600401611d3a906142c3565b60405180910390fd5b600e5481611d4f610e7c565b611d5991906145a1565b1115611d9a576040517f08c379a0000000000000000000000000000000000000000000000000000000008152600401611d9190614363565b60405180910390fd5b8180600d54611da99190614628565b341015611deb576040517f08c379a0000000000000000000000000000000000000000000000000000000008152600401611de2906143c3565b60405180910390fd5b601060009054906101000a900460ff1615611e3b576040517f08c379a0000000000000000000000000000000000000000000000000000000008152600401611e3290614303565b60405180910390fd5b611e4c611e46612aa6565b84612d44565b505050565b611e59612a9e565b73ffffffffffffffffffffffffffffffffffffffff168273ffffffffffffffffffffffffffffffffffffffff161415611ebe576040517fb06307db00000000000000000000000000000000000000000000000000000000815260040160405180910390fd5b8060076000611ecb612a9e565b73ffffffffffffffffffffffffffffffffffffffff1673ffffffffffffffffffffffffffffffffffffffff16815260200190815260200160002060008473ffffffffffffffffffffffffffffffffffffffff1673ffffffffffffffffffffffffffffffffffffffff16815260200190815260200160002060006101000a81548160ff0219169083151502179055508173ffffffffffffffffffffffffffffffffffffffff16611f78612a9e565b73ffffffffffffffffffffffffffffffffffffffff167f17307eab39ab6107e8899845ad3d59bd9653f200f220920489ca2b5937696c3183604051611fbd919061422b565b60405180910390a35050565b600c8054611fd690614799565b80601f016020809104026020016040519081016040528092919081815260200182805461200290614799565b801561204f5780601f106120245761010080835404028352916020019161204f565b820191906000526020600020905b81548152906001019060200180831161203257829003601f168201915b505050505081565b61205f612aa6565b73ffffffffffffffffffffffffffffffffffffffff1661207d611a1b565b73ffffffffffffffffffffffffffffffffffffffff16146120d3576040517f08c379a00000000000000000000000000000000000000000000000000000000081526004016120ca906142e3565b60405180910390fd5b80600f8190555050565b6120e5612aa6565b73ffffffffffffffffffffffffffffffffffffffff16612103611a1b565b73ffffffffffffffffffffffffffffffffffffffff1614612159576040517f08c379a0000000000000000000000000000000000000000000000000000000008152600401612150906142e3565b60405180910390fd5b80601060016101000a81548160ff02191690831515021790555050565b612181848484610e93565b60008373ffffffffffffffffffffffffffffffffffffffff163b146121e3576121ac84848484612d62565b6121e2576040517fd1a57ed600000000000000000000000000000000000000000000000000000000815260040160405180910390fd5b5b50505050565b6121f161353e565b6121f961353e565b612201612aae565b8310806122155750612211612d3b565b8310155b15612223578091505061224e565b61222c83612d10565b9050806040015115612241578091505061224e565b61224a83612ec2565b9150505b919050565b606061225e82612a3f565b61229d576040517f08c379a000000000000000000000000000000000000000000000000000000000815260040161229490614343565b60405180910390fd5b60001515601060029054906101000a900460ff161515141561234b57600c80546122c690614799565b80601f01602080910402602001604051908101604052809291908181526020018280546122f290614799565b801561233f5780601f106123145761010080835404028352916020019161233f565b820191906000526020600020905b81548152906001019060200180831161232257829003601f168201915b505050505090506123a7565b6000612355612ee2565b9050600081511161237557604051806020016040528060008152506123a3565b8061237f84612f74565b600b6040516020016123939392919061413a565b6040516020818303038152906040525b9150505b919050565b826000811180156123bf5750600f548111155b6123fe576040517f08c379a00000000000000000000000000000000000000000000000000000000081526004016123f5906142c3565b60405180910390fd5b600e548161240a610e7c565b61241491906145a1565b1115612455576040517f08c379a000000000000000000000000000000000000000000000000000000000815260040161244c90614363565b60405180910390fd5b8380600d546124649190614628565b3410156124a6576040517f08c379a000000000000000000000000000000000000000000000000000000000815260040161249d906143c3565b60405180910390fd5b601060019054906101000a900460ff166124f5576040517f08c379a00000000000000000000000000000000000000000000000000000000081526004016124ec90614383565b60405180910390fd5b60126000612501612aa6565b73ffffffffffffffffffffffffffffffffffffffff1673ffffffffffffffffffffffffffffffffffffffff16815260200190815260200160002060009054906101000a900460ff1615612589576040517f08c379a000000000000000000000000000000000000000000000000000000000815260040161258090614323565b60405180910390fd5b6000612593612aa6565b6040516020016125a3919061411f565b604051602081830303815290604052805190602001209050612609858580806020026020016040519081016040528093929190818152602001838360200280828437600081840152601f19601f82011690508083019250505050505050601154836130d5565b612648576040517f08c379a000000000000000000000000000000000000000000000000000000000815260040161263f90614283565b60405180910390fd5b600160126000612656612aa6565b73ffffffffffffffffffffffffffffffffffffffff1673ffffffffffffffffffffffffffffffffffffffff16815260200190815260200160002060006101000a81548160ff0219169083151502179055506126b86126b2612aa6565b87612d44565b505050505050565b600e5481565b60126020528060005260406000206000915054906101000a900460ff1681565b6126ee612aa6565b73ffffffffffffffffffffffffffffffffffffffff1661270c611a1b565b73ffffffffffffffffffffffffffffffffffffffff1614612762576040517f08c379a0000000000000000000000000000000000000000000000000000000008152600401612759906142e3565b60405180910390fd5b80601060026101000a81548160ff02191690831515021790555050565b6000600760008473ffffffffffffffffffffffffffffffffffffffff1673ffffffffffffffffffffffffffffffffffffffff16815260200190815260200160002060008373ffffffffffffffffffffffffffffffffffffffff1673ffffffffffffffffffffffffffffffffffffffff16815260200190815260200160002060009054906101000a900460ff16905092915050565b816000811180156128265750600f548111155b612865576040517f08c379a000000000000000000000000000000000000000000000000000000000815260040161285c906142c3565b60405180910390fd5b600e5481612871610e7c565b61287b91906145a1565b11156128bc576040517f08c379a00000000000000000000000000000000000000000000000000000000081526004016128b390614363565b60405180910390fd5b6128c4612aa6565b73ffffffffffffffffffffffffffffffffffffffff166128e2611a1b565b73ffffffffffffffffffffffffffffffffffffffff1614612938576040517f08c379a000000000000000000000000000000000000000000000000000000000815260040161292f906142e3565b60405180910390fd5b6129428284612d44565b505050565b61294f612aa6565b73ffffffffffffffffffffffffffffffffffffffff1661296d611a1b565b73ffffffffffffffffffffffffffffffffffffffff16146129c3576040517f08c379a00000000000000000000000000000000000000000000000000000000081526004016129ba906142e3565b60405180910390fd5b600073ffffffffffffffffffffffffffffffffffffffff168173ffffffffffffffffffffffffffffffffffffffff161415612a33576040517f08c379a0000000000000000000000000000000000000000000000000000000008152600401612a2a906142a3565b60405180910390fd5b612a3c81612c4a565b50565b600081612a4a612aae565b11158015612a59575060005482105b8015612a97575060007c0100000000000000000000000000000000000000000000000000000000600460008581526020019081526020016000205416145b9050919050565b600033905090565b600033905090565b60006001905090565b60008082905080612ac6612aae565b11612b4e57600054811015612b4d5760006004600083815260200190815260200160002054905060007c010000000000000000000000000000000000000000000000000000000082161415612b4b575b6000811415612b41576004600083600190039350838152602001908152602001600020549050612b16565b8092505050612b80565b505b5b6040517fdf2d9b4200000000000000000000000000000000000000000000000000000000815260040160405180910390fd5b919050565b6000806000600690508360005280602052604060002092508254915050915091565b600073ffffffffffffffffffffffffffffffffffffffff8316925073ffffffffffffffffffffffffffffffffffffffff821691508382148383141790509392505050565b50505050565b60008060e883901c905060e8612c088686846130ec565b62ffffff16901b9150509392505050565b600073ffffffffffffffffffffffffffffffffffffffff83169250814260a01b178317905092915050565b50505050565b6000600860009054906101000a900473ffffffffffffffffffffffffffffffffffffffff16905081600860006101000a81548173ffffffffffffffffffffffffffffffffffffffff021916908373ffffffffffffffffffffffffffffffffffffffff1602179055508173ffffffffffffffffffffffffffffffffffffffff168173ffffffffffffffffffffffffffffffffffffffff167f8be0079c531659141344cd1fd0a4f28419497f9722a3daafe3b4186f6b6457e060405160405180910390a35050565b612d1861353e565b612d3460046000848152602001908152602001600020546130f5565b9050919050565b60008054905090565b612d5e8282604051806020016040528060008152506131ab565b5050565b60008373ffffffffffffffffffffffffffffffffffffffff1663150b7a02612d88612a9e565b8786866040518563ffffffff1660e01b8152600401612daa949392919061419b565b602060405180830381600087803b158015612dc457600080fd5b505af1925050508015612df557506040513d601f19601f82011682018060405250810190612df29190613ae2565b60015b612e6f573d8060008114612e25576040519150601f19603f3d011682016040523d82523d6000602084013e612e2a565b606091505b50600081511415612e67576040517fd1a57ed600000000000000000000000000000000000000000000000000000000815260040160405180910390fd5b805181602001fd5b63150b7a0260e01b7bffffffffffffffffffffffffffffffffffffffffffffffffffffffff1916817bffffffffffffffffffffffffffffffffffffffffffffffffffffffff191614915050949350505050565b612eca61353e565b612edb612ed683612ab7565b6130f5565b9050919050565b6060600a8054612ef190614799565b80601f0160208091040260200160405190810160405280929190818152602001828054612f1d90614799565b8015612f6a5780601f10612f3f57610100808354040283529160200191612f6a565b820191906000526020600020905b815481529060010190602001808311612f4d57829003601f168201915b5050505050905090565b60606000821415612fbc576040518060400160405280600181526020017f300000000000000000000000000000000000000000000000000000000000000081525090506130d0565b600082905060005b60008214612fee578080612fd7906147fc565b915050600a82612fe791906145f7565b9150612fc4565b60008167ffffffffffffffff81111561300a57613009614956565b5b6040519080825280601f01601f19166020018201604052801561303c5781602001600182028036833780820191505090505b5090505b600085146130c9576001826130559190614682565b9150600a856130649190614869565b603061307091906145a1565b60f81b81838151811061308657613085614927565b5b60200101907effffffffffffffffffffffffffffffffffffffffffffffffffffffffffffff1916908160001a905350600a856130c291906145f7565b9450613040565b8093505050505b919050565b6000826130e28584613248565b1490509392505050565b60009392505050565b6130fd61353e565b81816000019073ffffffffffffffffffffffffffffffffffffffff16908173ffffffffffffffffffffffffffffffffffffffff168152505060a082901c816020019067ffffffffffffffff16908167ffffffffffffffff168152505060007c01000000000000000000000000000000000000000000000000000000008316141581604001901515908115158152505060e882901c816060019062ffffff16908162ffffff1681525050919050565b6131b583836132bd565b60008373ffffffffffffffffffffffffffffffffffffffff163b1461324357600080549050600083820390505b6131f56000868380600101945086612d62565b61322b576040517fd1a57ed600000000000000000000000000000000000000000000000000000000815260040160405180910390fd5b8181106131e257816000541461324057600080fd5b50505b505050565b60008082905060005b84518110156132b257600085828151811061326f5761326e614927565b5b602002602001015190508083116132915761328a8382613491565b925061329e565b61329b8184613491565b92505b5080806132aa906147fc565b915050613251565b508091505092915050565b600080549050600073ffffffffffffffffffffffffffffffffffffffff168373ffffffffffffffffffffffffffffffffffffffff16141561332a576040517f2e07630000000000000000000000000000000000000000000000000000000000815260040160405180910390fd5b6000821415613365576040517fb562e8dd00000000000000000000000000000000000000000000000000000000815260040160405180910390fd5b6133726000848385612beb565b600160406001901b178202600560008573ffffffffffffffffffffffffffffffffffffffff1673ffffffffffffffffffffffffffffffffffffffff168152602001908152602001600020600082825401925050819055506133e9836133da6000866000612bf1565b6133e3856134a8565b17612c19565b60046000838152602001908152602001600020819055506000819050600083830190505b818060010192508573ffffffffffffffffffffffffffffffffffffffff16600073ffffffffffffffffffffffffffffffffffffffff167fddf252ad1be2c89b69c2b068fc378daa952ba7f163c4a11628f55a4df523b3ef60405160405180910390a480821061340d5780600081905550505061348c6000848385612c44565b505050565b600082600052816020526040600020905092915050565b60006001821460e11b9050919050565b8280546134c490614799565b90600052602060002090601f0160209004810192826134e6576000855561352d565b82601f106134ff57805160ff191683800117855561352d565b8280016001018555821561352d579182015b8281111561352c578251825591602001919060010190613511565b5b50905061353a919061358d565b5090565b6040518060800160405280600073ffffffffffffffffffffffffffffffffffffffff168152602001600067ffffffffffffffff168152602001600015158152602001600062ffffff1681525090565b5b808211156135a657600081600090555060010161358e565b5090565b60006135bd6135b88461443e565b614419565b905080838252602082019050828560208602820111156135e0576135df61498f565b5b60005b8581101561361057816135f688826137e7565b8452602084019350602083019250506001810190506135e3565b5050509392505050565b600061362d6136288461446a565b614419565b90508281526020810184848401111561364957613648614994565b5b613654848285614757565b509392505050565b600061366f61366a8461449b565b614419565b90508281526020810184848401111561368b5761368a614994565b5b613696848285614757565b509392505050565b6000813590506136ad81614bf9565b92915050565b60008083601f8401126136c9576136c861498a565b5b8235905067ffffffffffffffff8111156136e6576136e5614985565b5b6020830191508360208202830111156137025761370161498f565b5b9250929050565b600082601f83011261371e5761371d61498a565b5b813561372e8482602086016135aa565b91505092915050565b60008135905061374681614c10565b92915050565b60008135905061375b81614c27565b92915050565b60008135905061377081614c3e565b92915050565b60008151905061378581614c3e565b92915050565b600082601f8301126137a05761379f61498a565b5b81356137b084826020860161361a565b91505092915050565b600082601f8301126137ce576137cd61498a565b5b81356137de84826020860161365c565b91505092915050565b6000813590506137f681614c55565b92915050565b6000602082840312156138125761381161499e565b5b60006138208482850161369e565b91505092915050565b600080604083850312156138405761383f61499e565b5b600061384e8582860161369e565b925050602061385f8582860161369e565b9150509250929050565b6000806000606084860312156138825761388161499e565b5b60006138908682870161369e565b93505060206138a18682870161369e565b92505060406138b2868287016137e7565b9150509250925092565b600080600080608085870312156138d6576138d561499e565b5b60006138e48782880161369e565b94505060206138f58782880161369e565b9350506040613906878288016137e7565b925050606085013567ffffffffffffffff81111561392757613926614999565b5b6139338782880161378b565b91505092959194509250565b600080604083850312156139565761395561499e565b5b60006139648582860161369e565b925050602061397585828601613737565b9150509250929050565b600080604083850312156139965761399561499e565b5b60006139a48582860161369e565b92505060206139b5858286016137e7565b9150509250929050565b6000806000606084860312156139d8576139d761499e565b5b60006139e68682870161369e565b93505060206139f7868287016137e7565b9250506040613a08868287016137e7565b9150509250925092565b600060208284031215613a2857613a2761499e565b5b600082013567ffffffffffffffff811115613a4657613a45614999565b5b613a5284828501613709565b91505092915050565b600060208284031215613a7157613a7061499e565b5b6000613a7f84828501613737565b91505092915050565b600060208284031215613a9e57613a9d61499e565b5b6000613aac8482850161374c565b91505092915050565b600060208284031215613acb57613aca61499e565b5b6000613ad984828501613761565b91505092915050565b600060208284031215613af857613af761499e565b5b6000613b0684828501613776565b91505092915050565b600060208284031215613b2557613b2461499e565b5b600082013567ffffffffffffffff811115613b4357613b42614999565b5b613b4f848285016137b9565b91505092915050565b600060208284031215613b6e57613b6d61499e565b5b6000613b7c848285016137e7565b91505092915050565b60008060408385031215613b9c57613b9b61499e565b5b6000613baa858286016137e7565b9250506020613bbb8582860161369e565b9150509250929050565b600080600060408486031215613bde57613bdd61499e565b5b6000613bec868287016137e7565b935050602084013567ffffffffffffffff811115613c0d57613c0c614999565b5b613c19868287016136b3565b92509250509250925092565b6000613c318383614039565b60808301905092915050565b6000613c4983836140f2565b60208301905092915050565b613c5e816146b6565b82525050565b613c6d816146b6565b82525050565b613c84613c7f826146b6565b614845565b82525050565b6000613c9582614501565b613c9f8185614547565b9350613caa836144cc565b8060005b83811015613cdb578151613cc28882613c25565b9750613ccd8361452d565b925050600181019050613cae565b5085935050505092915050565b6000613cf38261450c565b613cfd8185614558565b9350613d08836144dc565b8060005b83811015613d39578151613d208882613c3d565b9750613d2b8361453a565b925050600181019050613d0c565b5085935050505092915050565b613d4f816146c8565b82525050565b613d5e816146c8565b82525050565b613d6d816146d4565b82525050565b6000613d7e82614517565b613d888185614569565b9350613d98818560208601614766565b613da1816149a3565b840191505092915050565b6000613db782614522565b613dc18185614585565b9350613dd1818560208601614766565b613dda816149a3565b840191505092915050565b6000613df082614522565b613dfa8185614596565b9350613e0a818560208601614766565b80840191505092915050565b60008154613e2381614799565b613e2d8186614596565b94506001821660008114613e485760018114613e5957613e8c565b60ff19831686528186019350613e8c565b613e62856144ec565b60005b83811015613e8457815481890152600182019150602081019050613e65565b838801955050505b50505092915050565b6000613ea2600e83614585565b9150613ead826149c1565b602082019050919050565b6000613ec5602683614585565b9150613ed0826149ea565b604082019050919050565b6000613ee8601483614585565b9150613ef382614a39565b602082019050919050565b6000613f0b602083614585565b9150613f1682614a62565b602082019050919050565b6000613f2e601783614585565b9150613f3982614a8b565b602082019050919050565b6000613f51601883614585565b9150613f5c82614ab4565b602082019050919050565b6000613f74602f83614585565b9150613f7f82614add565b604082019050919050565b6000613f9760008361457a565b9150613fa282614b2c565b600082019050919050565b6000613fba601483614585565b9150613fc582614b2f565b602082019050919050565b6000613fdd602283614585565b9150613fe882614b58565b604082019050919050565b6000614000601f83614585565b915061400b82614ba7565b602082019050919050565b6000614023601383614585565b915061402e82614bd0565b602082019050919050565b60808201600082015161404f6000850182613c55565b5060208201516140626020850182614110565b5060408201516140756040850182613d46565b50606082015161408860608501826140e3565b50505050565b6080820160008201516140a46000850182613c55565b5060208201516140b76020850182614110565b5060408201516140ca6040850182613d46565b5060608201516140dd60608501826140e3565b50505050565b6140ec8161472a565b82525050565b6140fb81614739565b82525050565b61410a81614739565b82525050565b61411981614743565b82525050565b600061412b8284613c73565b60148201915081905092915050565b60006141468286613de5565b91506141528285613de5565b915061415e8284613e16565b9150819050949350505050565b600061417682613f8a565b9150819050919050565b60006020820190506141956000830184613c64565b92915050565b60006080820190506141b06000830187613c64565b6141bd6020830186613c64565b6141ca6040830185614101565b81810360608301526141dc8184613d73565b905095945050505050565b600060208201905081810360008301526142018184613c8a565b905092915050565b600060208201905081810360008301526142238184613ce8565b905092915050565b60006020820190506142406000830184613d55565b92915050565b600060208201905061425b6000830184613d64565b92915050565b6000602082019050818103600083015261427b8184613dac565b905092915050565b6000602082019050818103600083015261429c81613e95565b9050919050565b600060208201905081810360008301526142bc81613eb8565b9050919050565b600060208201905081810360008301526142dc81613edb565b9050919050565b600060208201905081810360008301526142fc81613efe565b9050919050565b6000602082019050818103600083015261431c81613f21565b9050919050565b6000602082019050818103600083015261433c81613f44565b9050919050565b6000602082019050818103600083015261435c81613f67565b9050919050565b6000602082019050818103600083015261437c81613fad565b9050919050565b6000602082019050818103600083015261439c81613fd0565b9050919050565b600060208201905081810360008301526143bc81613ff3565b9050919050565b600060208201905081810360008301526143dc81614016565b9050919050565b60006080820190506143f8600083018461408e565b92915050565b60006020820190506144136000830184614101565b92915050565b6000614423614434565b905061442f82826147cb565b919050565b6000604051905090565b600067ffffffffffffffff82111561445957614458614956565b5b602082029050602081019050919050565b600067ffffffffffffffff82111561448557614484614956565b5b61448e826149a3565b9050602081019050919050565b600067ffffffffffffffff8211156144b6576144b5614956565b5b6144bf826149a3565b9050602081019050919050565b6000819050602082019050919050565b6000819050602082019050919050565b60008190508160005260206000209050919050565b600081519050919050565b600081519050919050565b600081519050919050565b600081519050919050565b6000602082019050919050565b6000602082019050919050565b600082825260208201905092915050565b600082825260208201905092915050565b600082825260208201905092915050565b600081905092915050565b600082825260208201905092915050565b600081905092915050565b60006145ac82614739565b91506145b783614739565b9250827fffffffffffffffffffffffffffffffffffffffffffffffffffffffffffffffff038211156145ec576145eb61489a565b5b828201905092915050565b600061460282614739565b915061460d83614739565b92508261461d5761461c6148c9565b5b828204905092915050565b600061463382614739565b915061463e83614739565b9250817fffffffffffffffffffffffffffffffffffffffffffffffffffffffffffffffff04831182151516156146775761467661489a565b5b828202905092915050565b600061468d82614739565b915061469883614739565b9250828210156146ab576146aa61489a565b5b828203905092915050565b60006146c18261470a565b9050919050565b60008115159050919050565b6000819050919050565b60007fffffffff0000000000000000000000000000000000000000000000000000000082169050919050565b600073ffffffffffffffffffffffffffffffffffffffff82169050919050565b600062ffffff82169050919050565b6000819050919050565b600067ffffffffffffffff82169050919050565b82818337600083830152505050565b60005b83811015614784578082015181840152602081019050614769565b83811115614793576000848401525b50505050565b600060028204905060018216806147b157607f821691505b602082108114156147c5576147c46148f8565b5b50919050565b6147d4826149a3565b810181811067ffffffffffffffff821117156147f3576147f2614956565b5b80604052505050565b600061480782614739565b91507fffffffffffffffffffffffffffffffffffffffffffffffffffffffffffffffff82141561483a5761483961489a565b5b600182019050919050565b600061485082614857565b9050919050565b6000614862826149b4565b9050919050565b600061487482614739565b915061487f83614739565b92508261488f5761488e6148c9565b5b828206905092915050565b7f4e487b7100000000000000000000000000000000000000000000000000000000600052601160045260246000fd5b7f4e487b7100000000000000000000000000000000000000000000000000000000600052601260045260246000fd5b7f4e487b7100000000000000000000000000000000000000000000000000000000600052602260045260246000fd5b7f4e487b7100000000000000000000000000000000000000000000000000000000600052603260045260246000fd5b7f4e487b7100000000000000000000000000000000000000000000000000000000600052604160045260246000fd5b600080fd5b600080fd5b600080fd5b600080fd5b600080fd5b600080fd5b6000601f19601f8301169050919050565b60008160601b9050919050565b7f496e76616c69642070726f6f6621000000000000000000000000000000000000600082015250565b7f4f776e61626c653a206e6577206f776e657220697320746865207a65726f206160008201527f6464726573730000000000000000000000000000000000000000000000000000602082015250565b7f496e76616c6964206d696e7420616d6f756e7421000000000000000000000000600082015250565b7f4f776e61626c653a2063616c6c6572206973206e6f7420746865206f776e6572600082015250565b7f54686520636f6e74726163742069732070617573656421000000000000000000600082015250565b7f4164647265737320616c726561647920636c61696d6564210000000000000000600082015250565b7f4552433732314d657461646174613a2055524920717565727920666f72206e6f60008201527f6e6578697374656e7420746f6b656e0000000000000000000000000000000000602082015250565b50565b7f4d617820737570706c7920657863656564656421000000000000000000000000600082015250565b7f5468652077686974656c6973742073616c65206973206e6f7420656e61626c6560008201527f6421000000000000000000000000000000000000000000000000000000000000602082015250565b7f5265656e7472616e637947756172643a207265656e7472616e742063616c6c00600082015250565b7f496e73756666696369656e742066756e64732100000000000000000000000000600082015250565b614c02816146b6565b8114614c0d57600080fd5b50565b614c19816146c8565b8114614c2457600080fd5b50565b614c30816146d4565b8114614c3b57600080fd5b50565b614c47816146de565b8114614c5257600080fd5b50565b614c5e81614739565b8114614c6957600080fd5b5056fea264697066735822122093a62b6b2594f5a39485413cb37f598e7497405041e8d01fb298f59fb232512e64736f6c63430008070033",
  "linkReferences": {},
  "deployedLinkReferences": {}
}